{
  "_format": "hh-sol-artifact-1",
  "contractName": "CarbonCreditNFT",
  "sourceName": "contracts/CarbonCreditNFT.sol",
  "abi": [
    {
      "inputs": [
        {
          "internalType": "address",
          "name": "_averageEmissionsOracle",
          "type": "address"
        },
        {
          "internalType": "address",
          "name": "_projectEmissionsOracle",
          "type": "address"
        },
        {
          "internalType": "address",
          "name": "_projectApproval",
          "type": "address"
        }
      ],
      "stateMutability": "nonpayable",
      "type": "constructor"
    },
    {
      "inputs": [
        {
          "internalType": "address",
          "name": "sender",
          "type": "address"
        },
        {
          "internalType": "uint256",
          "name": "tokenId",
          "type": "uint256"
        },
        {
          "internalType": "address",
          "name": "owner",
          "type": "address"
        }
      ],
      "name": "ERC721IncorrectOwner",
      "type": "error"
    },
    {
      "inputs": [
        {
          "internalType": "address",
          "name": "operator",
          "type": "address"
        },
        {
          "internalType": "uint256",
          "name": "tokenId",
          "type": "uint256"
        }
      ],
      "name": "ERC721InsufficientApproval",
      "type": "error"
    },
    {
      "inputs": [
        {
          "internalType": "address",
          "name": "approver",
          "type": "address"
        }
      ],
      "name": "ERC721InvalidApprover",
      "type": "error"
    },
    {
      "inputs": [
        {
          "internalType": "address",
          "name": "operator",
          "type": "address"
        }
      ],
      "name": "ERC721InvalidOperator",
      "type": "error"
    },
    {
      "inputs": [
        {
          "internalType": "address",
          "name": "owner",
          "type": "address"
        }
      ],
      "name": "ERC721InvalidOwner",
      "type": "error"
    },
    {
      "inputs": [
        {
          "internalType": "address",
          "name": "receiver",
          "type": "address"
        }
      ],
      "name": "ERC721InvalidReceiver",
      "type": "error"
    },
    {
      "inputs": [
        {
          "internalType": "address",
          "name": "sender",
          "type": "address"
        }
      ],
      "name": "ERC721InvalidSender",
      "type": "error"
    },
    {
      "inputs": [
        {
          "internalType": "uint256",
          "name": "tokenId",
          "type": "uint256"
        }
      ],
      "name": "ERC721NonexistentToken",
      "type": "error"
    },
    {
      "inputs": [],
      "name": "EnforcedPause",
      "type": "error"
    },
    {
      "inputs": [],
      "name": "ExpectedPause",
      "type": "error"
    },
    {
      "inputs": [
        {
          "internalType": "address",
          "name": "owner",
          "type": "address"
        }
      ],
      "name": "OwnableInvalidOwner",
      "type": "error"
    },
    {
      "inputs": [
        {
          "internalType": "address",
          "name": "account",
          "type": "address"
        }
      ],
      "name": "OwnableUnauthorizedAccount",
      "type": "error"
    },
    {
      "anonymous": false,
      "inputs": [
        {
          "indexed": true,
          "internalType": "address",
          "name": "owner",
          "type": "address"
        },
        {
          "indexed": true,
          "internalType": "address",
          "name": "approved",
          "type": "address"
        },
        {
          "indexed": true,
          "internalType": "uint256",
          "name": "tokenId",
          "type": "uint256"
        }
      ],
      "name": "Approval",
      "type": "event"
    },
    {
      "anonymous": false,
      "inputs": [
        {
          "indexed": true,
          "internalType": "address",
          "name": "owner",
          "type": "address"
        },
        {
          "indexed": true,
          "internalType": "address",
          "name": "operator",
          "type": "address"
        },
        {
          "indexed": false,
          "internalType": "bool",
          "name": "approved",
          "type": "bool"
        }
      ],
      "name": "ApprovalForAll",
      "type": "event"
    },
    {
      "anonymous": false,
      "inputs": [
        {
          "indexed": true,
          "internalType": "address",
          "name": "owner",
          "type": "address"
        },
        {
          "indexed": true,
          "internalType": "address",
          "name": "recipient",
          "type": "address"
        },
        {
          "indexed": false,
          "internalType": "uint256",
          "name": "numberOfTokens",
          "type": "uint256"
        },
        {
          "indexed": false,
          "internalType": "uint256",
          "name": "timestamp",
          "type": "uint256"
        }
      ],
      "name": "CarbonCreditsMinted",
      "type": "event"
    },
    {
      "anonymous": false,
      "inputs": [
        {
          "indexed": true,
          "internalType": "address",
          "name": "previousOwner",
          "type": "address"
        },
        {
          "indexed": true,
          "internalType": "address",
          "name": "newOwner",
          "type": "address"
        }
      ],
      "name": "OwnershipTransferred",
      "type": "event"
    },
    {
      "anonymous": false,
      "inputs": [
        {
          "indexed": false,
          "internalType": "address",
          "name": "account",
          "type": "address"
        }
      ],
      "name": "Paused",
      "type": "event"
    },
    {
      "anonymous": false,
      "inputs": [
        {
          "indexed": true,
          "internalType": "address",
          "name": "owner",
          "type": "address"
        },
        {
          "indexed": false,
          "internalType": "bytes32",
          "name": "dataHash",
          "type": "bytes32"
        }
      ],
      "name": "ProjectRegistered",
      "type": "event"
    },
    {
      "anonymous": false,
      "inputs": [
        {
          "indexed": true,
          "internalType": "address",
          "name": "from",
          "type": "address"
        },
        {
          "indexed": true,
          "internalType": "address",
          "name": "to",
          "type": "address"
        },
        {
          "indexed": true,
          "internalType": "uint256",
          "name": "tokenId",
          "type": "uint256"
        }
      ],
      "name": "Transfer",
      "type": "event"
    },
    {
      "anonymous": false,
      "inputs": [
        {
          "indexed": false,
          "internalType": "address",
          "name": "account",
          "type": "address"
        }
      ],
      "name": "Unpaused",
      "type": "event"
    },
    {
      "inputs": [
        {
          "internalType": "address",
          "name": "to",
          "type": "address"
        },
        {
          "internalType": "uint256",
          "name": "tokenId",
          "type": "uint256"
        }
      ],
      "name": "approve",
      "outputs": [],
      "stateMutability": "nonpayable",
      "type": "function"
    },
    {
      "inputs": [],
      "name": "averageEmissionsOracle",
      "outputs": [
        {
          "internalType": "contract IAverageEmissionsOracle",
          "name": "",
          "type": "address"
        }
      ],
      "stateMutability": "view",
      "type": "function"
    },
    {
      "inputs": [
        {
          "internalType": "address",
          "name": "owner",
          "type": "address"
        }
      ],
      "name": "balanceOf",
      "outputs": [
        {
          "internalType": "uint256",
          "name": "",
          "type": "uint256"
        }
      ],
      "stateMutability": "view",
      "type": "function"
    },
    {
      "inputs": [
        {
          "internalType": "uint256",
          "name": "tokenId",
          "type": "uint256"
        }
      ],
      "name": "getApproved",
      "outputs": [
        {
          "internalType": "address",
          "name": "",
          "type": "address"
        }
      ],
      "stateMutability": "view",
      "type": "function"
    },
    {
      "inputs": [
        {
          "internalType": "address",
          "name": "owner",
          "type": "address"
        },
        {
          "internalType": "address",
          "name": "operator",
          "type": "address"
        }
      ],
      "name": "isApprovedForAll",
      "outputs": [
        {
          "internalType": "bool",
          "name": "",
          "type": "bool"
        }
      ],
      "stateMutability": "view",
      "type": "function"
    },
    {
      "inputs": [
        {
          "internalType": "address",
          "name": "_owner",
          "type": "address"
        }
      ],
      "name": "isProjectRegistered",
      "outputs": [
        {
          "internalType": "bool",
          "name": "",
          "type": "bool"
        }
      ],
      "stateMutability": "view",
      "type": "function"
    },
    {
      "inputs": [
        {
          "internalType": "address",
          "name": "recipient",
          "type": "address"
        }
      ],
      "name": "mintCarbonCredit",
      "outputs": [],
      "stateMutability": "nonpayable",
      "type": "function"
    },
    {
      "inputs": [],
      "name": "name",
      "outputs": [
        {
          "internalType": "string",
          "name": "",
          "type": "string"
        }
      ],
      "stateMutability": "view",
      "type": "function"
    },
    {
      "inputs": [],
      "name": "owner",
      "outputs": [
        {
          "internalType": "address",
          "name": "",
          "type": "address"
        }
      ],
      "stateMutability": "view",
      "type": "function"
    },
    {
      "inputs": [
        {
          "internalType": "uint256",
          "name": "tokenId",
          "type": "uint256"
        }
      ],
      "name": "ownerOf",
      "outputs": [
        {
          "internalType": "address",
          "name": "",
          "type": "address"
        }
      ],
      "stateMutability": "view",
      "type": "function"
    },
    {
      "inputs": [],
      "name": "pause",
      "outputs": [],
      "stateMutability": "nonpayable",
      "type": "function"
    },
    {
      "inputs": [],
      "name": "paused",
      "outputs": [
        {
          "internalType": "bool",
          "name": "",
          "type": "bool"
        }
      ],
      "stateMutability": "view",
      "type": "function"
    },
    {
      "inputs": [],
      "name": "projectApproval",
      "outputs": [
        {
          "internalType": "contract ProjectApproval",
          "name": "",
          "type": "address"
        }
      ],
      "stateMutability": "view",
      "type": "function"
    },
    {
      "inputs": [],
      "name": "projectEmissionsOracle",
      "outputs": [
        {
          "internalType": "contract IProjectEmissionsOracle",
          "name": "",
          "type": "address"
        }
      ],
      "stateMutability": "view",
      "type": "function"
    },
    {
      "inputs": [
        {
          "internalType": "address",
          "name": "",
          "type": "address"
        }
      ],
      "name": "projects",
      "outputs": [
        {
          "internalType": "address",
          "name": "owner",
          "type": "address"
        },
        {
          "internalType": "bytes32",
          "name": "dataHash",
          "type": "bytes32"
        },
        {
          "internalType": "uint256",
          "name": "lastMintedTimestamp",
          "type": "uint256"
        }
      ],
      "stateMutability": "view",
      "type": "function"
    },
    {
      "inputs": [
        {
          "internalType": "bytes32",
          "name": "dataHash",
          "type": "bytes32"
        }
      ],
      "name": "registerProject",
      "outputs": [],
      "stateMutability": "nonpayable",
      "type": "function"
    },
    {
      "inputs": [],
      "name": "renounceOwnership",
      "outputs": [],
      "stateMutability": "nonpayable",
      "type": "function"
    },
    {
      "inputs": [
        {
          "internalType": "address",
          "name": "from",
          "type": "address"
        },
        {
          "internalType": "address",
          "name": "to",
          "type": "address"
        },
        {
          "internalType": "uint256",
          "name": "tokenId",
          "type": "uint256"
        }
      ],
      "name": "safeTransferFrom",
      "outputs": [],
      "stateMutability": "nonpayable",
      "type": "function"
    },
    {
      "inputs": [
        {
          "internalType": "address",
          "name": "from",
          "type": "address"
        },
        {
          "internalType": "address",
          "name": "to",
          "type": "address"
        },
        {
          "internalType": "uint256",
          "name": "tokenId",
          "type": "uint256"
        },
        {
          "internalType": "bytes",
          "name": "data",
          "type": "bytes"
        }
      ],
      "name": "safeTransferFrom",
      "outputs": [],
      "stateMutability": "nonpayable",
      "type": "function"
    },
    {
      "inputs": [
        {
          "internalType": "address",
          "name": "operator",
          "type": "address"
        },
        {
          "internalType": "bool",
          "name": "approved",
          "type": "bool"
        }
      ],
      "name": "setApprovalForAll",
      "outputs": [],
      "stateMutability": "nonpayable",
      "type": "function"
    },
    {
      "inputs": [
        {
          "internalType": "bytes4",
          "name": "interfaceId",
          "type": "bytes4"
        }
      ],
      "name": "supportsInterface",
      "outputs": [
        {
          "internalType": "bool",
          "name": "",
          "type": "bool"
        }
      ],
      "stateMutability": "view",
      "type": "function"
    },
    {
      "inputs": [],
      "name": "symbol",
      "outputs": [
        {
          "internalType": "string",
          "name": "",
          "type": "string"
        }
      ],
      "stateMutability": "view",
      "type": "function"
    },
    {
      "inputs": [],
      "name": "tokenCounter",
      "outputs": [
        {
          "internalType": "uint256",
          "name": "",
          "type": "uint256"
        }
      ],
      "stateMutability": "view",
      "type": "function"
    },
    {
      "inputs": [
        {
          "internalType": "uint256",
          "name": "tokenId",
          "type": "uint256"
        }
      ],
      "name": "tokenURI",
      "outputs": [
        {
          "internalType": "string",
          "name": "",
          "type": "string"
        }
      ],
      "stateMutability": "view",
      "type": "function"
    },
    {
      "inputs": [
        {
          "internalType": "address",
          "name": "from",
          "type": "address"
        },
        {
          "internalType": "address",
          "name": "to",
          "type": "address"
        },
        {
          "internalType": "uint256",
          "name": "tokenId",
          "type": "uint256"
        }
      ],
      "name": "transferFrom",
      "outputs": [],
      "stateMutability": "nonpayable",
      "type": "function"
    },
    {
      "inputs": [
        {
          "internalType": "address",
          "name": "newOwner",
          "type": "address"
        }
      ],
      "name": "transferOwnership",
      "outputs": [],
      "stateMutability": "nonpayable",
      "type": "function"
    },
    {
      "inputs": [],
      "name": "unpause",
      "outputs": [],
      "stateMutability": "nonpayable",
      "type": "function"
    }
  ],
  "bytecode": "0x60806040523480156200001157600080fd5b5060405162003e7e38038062003e7e833981810160405281019062000037919062000370565b336040518060400160405280600f81526020017f436172626f6e4372656469744e465400000000000000000000000000000000008152506040518060400160405280600581526020017f43434e46540000000000000000000000000000000000000000000000000000008152508160009081620000b5919062000646565b508060019081620000c7919062000646565b5050506000600660006101000a81548160ff021916908315150217905550600073ffffffffffffffffffffffffffffffffffffffff168173ffffffffffffffffffffffffffffffffffffffff16036200015a5760006040517f1e4fbdf70000000000000000000000000000000000000000000000000000000081526004016200015191906200073e565b60405180910390fd5b6200016b816200024060201b60201c565b50600060078190555082600860006101000a81548173ffffffffffffffffffffffffffffffffffffffff021916908373ffffffffffffffffffffffffffffffffffffffff16021790555081600960006101000a81548173ffffffffffffffffffffffffffffffffffffffff021916908373ffffffffffffffffffffffffffffffffffffffff16021790555080600a60006101000a81548173ffffffffffffffffffffffffffffffffffffffff021916908373ffffffffffffffffffffffffffffffffffffffff1602179055505050506200075b565b6000600660019054906101000a900473ffffffffffffffffffffffffffffffffffffffff16905081600660016101000a81548173ffffffffffffffffffffffffffffffffffffffff021916908373ffffffffffffffffffffffffffffffffffffffff1602179055508173ffffffffffffffffffffffffffffffffffffffff168173ffffffffffffffffffffffffffffffffffffffff167f8be0079c531659141344cd1fd0a4f28419497f9722a3daafe3b4186f6b6457e060405160405180910390a35050565b600080fd5b600073ffffffffffffffffffffffffffffffffffffffff82169050919050565b600062000338826200030b565b9050919050565b6200034a816200032b565b81146200035657600080fd5b50565b6000815190506200036a816200033f565b92915050565b6000806000606084860312156200038c576200038b62000306565b5b60006200039c8682870162000359565b9350506020620003af8682870162000359565b9250506040620003c28682870162000359565b9150509250925092565b600081519050919050565b7f4e487b7100000000000000000000000000000000000000000000000000000000600052604160045260246000fd5b7f4e487b7100000000000000000000000000000000000000000000000000000000600052602260045260246000fd5b600060028204905060018216806200044e57607f821691505b60208210810362000464576200046362000406565b5b50919050565b60008190508160005260206000209050919050565b60006020601f8301049050919050565b600082821b905092915050565b600060088302620004ce7fffffffffffffffffffffffffffffffffffffffffffffffffffffffffffffffff826200048f565b620004da86836200048f565b95508019841693508086168417925050509392505050565b6000819050919050565b6000819050919050565b600062000527620005216200051b84620004f2565b620004fc565b620004f2565b9050919050565b6000819050919050565b620005438362000506565b6200055b62000552826200052e565b8484546200049c565b825550505050565b600090565b6200057262000563565b6200057f81848462000538565b505050565b5b81811015620005a7576200059b60008262000568565b60018101905062000585565b5050565b601f821115620005f657620005c0816200046a565b620005cb846200047f565b81016020851015620005db578190505b620005f3620005ea856200047f565b83018262000584565b50505b505050565b600082821c905092915050565b60006200061b60001984600802620005fb565b1980831691505092915050565b600062000636838362000608565b9150826002028217905092915050565b6200065182620003cc565b67ffffffffffffffff8111156200066d576200066c620003d7565b5b62000679825462000435565b62000686828285620005ab565b600060209050601f831160018114620006be5760008415620006a9578287015190505b620006b5858262000628565b86555062000725565b601f198416620006ce866200046a565b60005b82811015620006f857848901518255600182019150602085019450602081019050620006d1565b8683101562000718578489015162000714601f89168262000608565b8355505b6001600288020188555050505b505050505050565b62000738816200032b565b82525050565b60006020820190506200075560008301846200072d565b92915050565b613713806200076b6000396000f3fe608060405234801561001057600080fd5b50600436106101a95760003560e01c8063715018a6116100f9578063b1767af511610097578063c87b56dd11610071578063c87b56dd14610484578063d082e381146104b4578063e985e9c5146104d2578063f2fde38b14610502576101a9565b8063b1767af51461042e578063b2a0779e1461044c578063b88d4fde14610468576101a9565b80638456cb59116100d35780638456cb59146103cc5780638da5cb5b146103d657806395d89b41146103f4578063a22cb46514610412576101a9565b8063715018a614610372578063722350b41461037c578063840e78fd1461039a576101a9565b80633dd905f1116101665780635c975abb116101405780635c975abb146102d6578063600a389f146102f45780636352211e1461031257806370a0823114610342576101a9565b80633dd905f1146102805780633f4ba83a146102b057806342842e0e146102ba576101a9565b806301ffc9a7146101ae57806306fdde03146101de578063081812fc146101fc578063095ea7b31461022c57806321897cdd1461024857806323b872dd14610264575b600080fd5b6101c860048036038101906101c391906126ea565b61051e565b6040516101d59190612732565b60405180910390f35b6101e6610600565b6040516101f391906127dd565b60405180910390f35b61021660048036038101906102119190612835565b610692565b60405161022391906128a3565b60405180910390f35b610246600480360381019061024191906128ea565b6106ae565b005b610262600480360381019061025d9190612960565b6106c4565b005b61027e6004803603810190610279919061298d565b610a6b565b005b61029a600480360381019061029591906129e0565b610b6d565b6040516102a79190612732565b60405180910390f35b6102b8610c08565b005b6102d460048036038101906102cf919061298d565b610c1a565b005b6102de610c3a565b6040516102eb9190612732565b60405180910390f35b6102fc610c51565b6040516103099190612a6c565b60405180910390f35b61032c60048036038101906103279190612835565b610c77565b60405161033991906128a3565b60405180910390f35b61035c600480360381019061035791906129e0565b610c89565b6040516103699190612a96565b60405180910390f35b61037a610d43565b005b610384610d57565b6040516103919190612ad2565b60405180910390f35b6103b460048036038101906103af91906129e0565b610d7d565b6040516103c393929190612afc565b60405180910390f35b6103d4610dc7565b005b6103de610dd9565b6040516103eb91906128a3565b60405180910390f35b6103fc610e03565b60405161040991906127dd565b60405180910390f35b61042c60048036038101906104279190612b5f565b610e95565b005b610436610eab565b6040516104439190612bc0565b60405180910390f35b610466600480360381019061046191906129e0565b610ed1565b005b610482600480360381019061047d9190612d10565b6114a2565b005b61049e60048036038101906104999190612835565b6114bf565b6040516104ab91906127dd565b60405180910390f35b6104bc611528565b6040516104c99190612a96565b60405180910390f35b6104ec60048036038101906104e79190612d93565b61152e565b6040516104f99190612732565b60405180910390f35b61051c600480360381019061051791906129e0565b6115c2565b005b60007f80ac58cd000000000000000000000000000000000000000000000000000000007bffffffffffffffffffffffffffffffffffffffffffffffffffffffff1916827bffffffffffffffffffffffffffffffffffffffffffffffffffffffff191614806105e957507f5b5e139f000000000000000000000000000000000000000000000000000000007bffffffffffffffffffffffffffffffffffffffffffffffffffffffff1916827bffffffffffffffffffffffffffffffffffffffffffffffffffffffff1916145b806105f957506105f882611648565b5b9050919050565b60606000805461060f90612e02565b80601f016020809104026020016040519081016040528092919081815260200182805461063b90612e02565b80156106885780601f1061065d57610100808354040283529160200191610688565b820191906000526020600020905b81548152906001019060200180831161066b57829003601f168201915b5050505050905090565b600061069d826116b2565b506106a78261173a565b9050919050565b6106c082826106bb611777565b61177f565b5050565b6106cc611791565b6000801b8103610711576040517f08c379a000000000000000000000000000000000000000000000000000000000815260040161070890612e7f565b60405180910390fd5b600073ffffffffffffffffffffffffffffffffffffffff16600b60003373ffffffffffffffffffffffffffffffffffffffff1673ffffffffffffffffffffffffffffffffffffffff16815260200190815260200160002060000160009054906101000a900473ffffffffffffffffffffffffffffffffffffffff1673ffffffffffffffffffffffffffffffffffffffff16146107e2576040517f08c379a00000000000000000000000000000000000000000000000000000000081526004016107d990612eeb565b60405180910390fd5b600a60009054906101000a900473ffffffffffffffffffffffffffffffffffffffff1673ffffffffffffffffffffffffffffffffffffffff1663433cab2133836040518363ffffffff1660e01b815260040161083f929190612f0b565b602060405180830381865afa15801561085c573d6000803e3d6000fd5b505050506040513d601f19601f820116820180604052508101906108809190612f49565b6108bf576040517f08c379a00000000000000000000000000000000000000000000000000000000081526004016108b690612fc2565b60405180910390fd5b60405180606001604052803373ffffffffffffffffffffffffffffffffffffffff16815260200182815260200142815250600b60003373ffffffffffffffffffffffffffffffffffffffff1673ffffffffffffffffffffffffffffffffffffffff16815260200190815260200160002060008201518160000160006101000a81548173ffffffffffffffffffffffffffffffffffffffff021916908373ffffffffffffffffffffffffffffffffffffffff16021790555060208201518160010155604082015181600201559050503373ffffffffffffffffffffffffffffffffffffffff167f83de1e71280db675f9563d0566fe85382d2bab1ead7bd1f43ed97dda48a7efdc826040516109d39190612fe2565b60405180910390a2600960009054906101000a900473ffffffffffffffffffffffffffffffffffffffff1673ffffffffffffffffffffffffffffffffffffffff166377a77400336040518263ffffffff1660e01b8152600401610a3691906128a3565b600060405180830381600087803b158015610a5057600080fd5b505af1158015610a64573d6000803e3d6000fd5b5050505050565b600073ffffffffffffffffffffffffffffffffffffffff168273ffffffffffffffffffffffffffffffffffffffff1603610add5760006040517f64a0ae92000000000000000000000000000000000000000000000000000000008152600401610ad491906128a3565b60405180910390fd5b6000610af18383610aec611777565b6117d2565b90508373ffffffffffffffffffffffffffffffffffffffff168173ffffffffffffffffffffffffffffffffffffffff1614610b67578382826040517f64283d7b000000000000000000000000000000000000000000000000000000008152600401610b5e93929190612ffd565b60405180910390fd5b50505050565b60008073ffffffffffffffffffffffffffffffffffffffff16600b60008473ffffffffffffffffffffffffffffffffffffffff1673ffffffffffffffffffffffffffffffffffffffff16815260200190815260200160002060000160009054906101000a900473ffffffffffffffffffffffffffffffffffffffff1673ffffffffffffffffffffffffffffffffffffffff1614159050919050565b610c106119ec565b610c18611a73565b565b610c35838383604051806020016040528060008152506114a2565b505050565b6000600660009054906101000a900460ff16905090565b600960009054906101000a900473ffffffffffffffffffffffffffffffffffffffff1681565b6000610c82826116b2565b9050919050565b60008073ffffffffffffffffffffffffffffffffffffffff168273ffffffffffffffffffffffffffffffffffffffff1603610cfc5760006040517f89c62b64000000000000000000000000000000000000000000000000000000008152600401610cf391906128a3565b60405180910390fd5b600360008373ffffffffffffffffffffffffffffffffffffffff1673ffffffffffffffffffffffffffffffffffffffff168152602001908152602001600020549050919050565b610d4b6119ec565b610d556000611ad6565b565b600a60009054906101000a900473ffffffffffffffffffffffffffffffffffffffff1681565b600b6020528060005260406000206000915090508060000160009054906101000a900473ffffffffffffffffffffffffffffffffffffffff16908060010154908060020154905083565b610dcf6119ec565b610dd7611b9c565b565b6000600660019054906101000a900473ffffffffffffffffffffffffffffffffffffffff16905090565b606060018054610e1290612e02565b80601f0160208091040260200160405190810160405280929190818152602001828054610e3e90612e02565b8015610e8b5780601f10610e6057610100808354040283529160200191610e8b565b820191906000526020600020905b815481529060010190602001808311610e6e57829003601f168201915b5050505050905090565b610ea7610ea0611777565b8383611bff565b5050565b600860009054906101000a900473ffffffffffffffffffffffffffffffffffffffff1681565b610ed9611791565b6000600b60003373ffffffffffffffffffffffffffffffffffffffff1673ffffffffffffffffffffffffffffffffffffffff16815260200190815260200160002090503373ffffffffffffffffffffffffffffffffffffffff168160000160009054906101000a900473ffffffffffffffffffffffffffffffffffffffff1673ffffffffffffffffffffffffffffffffffffffff1614610fae576040517f08c379a0000000000000000000000000000000000000000000000000000000008152600401610fa5906130a6565b60405180910390fd5b6000429050601e8260020154610fc491906130f5565b811015611006576040517f08c379a0000000000000000000000000000000000000000000000000000000008152600401610ffd90613175565b60405180910390fd5b6000600960009054906101000a900473ffffffffffffffffffffffffffffffffffffffff1673ffffffffffffffffffffffffffffffffffffffff166344e61f62336040518263ffffffff1660e01b815260040161106391906128a3565b602060405180830381865afa158015611080573d6000803e3d6000fd5b505050506040513d601f19601f820116820180604052508101906110a491906131aa565b90506000600960009054906101000a900473ffffffffffffffffffffffffffffffffffffffff1673ffffffffffffffffffffffffffffffffffffffff1663e3d45a68336040518263ffffffff1660e01b815260040161110391906128a3565b602060405180830381865afa158015611120573d6000803e3d6000fd5b505050506040513d601f19601f8201168201806040525081019061114491906131aa565b90506000600860009054906101000a900473ffffffffffffffffffffffffffffffffffffffff1673ffffffffffffffffffffffffffffffffffffffff16638de4126d6040518163ffffffff1660e01b8152600401602060405180830381865afa1580156111b5573d6000803e3d6000fd5b505050506040513d601f19601f820116820180604052508101906111d991906131aa565b90506000831161121e576040517f08c379a000000000000000000000000000000000000000000000000000000000815260040161121590613249565b60405180910390fd5b808210611260576040517f08c379a0000000000000000000000000000000000000000000000000000000008152600401611257906132b5565b60405180910390fd5b600081116112a3576040517f08c379a000000000000000000000000000000000000000000000000000000000815260040161129a90613347565b60405180910390fd5b60006112b0848385611d6e565b90506000620f4240826112c39190613396565b905060008111611308576040517f08c379a00000000000000000000000000000000000000000000000000000000081526004016112ff90613439565b60405180910390fd5b85876002018190555060005b8181101561134d5761132889600754611d95565b6007600081548092919061133b90613459565b91905055508080600101915050611314565b506000620f42408361135f91906134a1565b90506000858561136f91906134d2565b8261137a9190613396565b9050600960009054906101000a900473ffffffffffffffffffffffffffffffffffffffff1673ffffffffffffffffffffffffffffffffffffffff1663779ada818a60000160009054906101000a900473ffffffffffffffffffffffffffffffffffffffff16836040518363ffffffff1660e01b81526004016113fd929190613506565b600060405180830381600087803b15801561141757600080fd5b505af115801561142b573d6000803e3d6000fd5b505050508973ffffffffffffffffffffffffffffffffffffffff163373ffffffffffffffffffffffffffffffffffffffff167f284f194befe02e4b285bc2a35d3b04c1c2a1015d820f808f3f1154d4869a5c45858b60405161148e92919061352f565b60405180910390a350505050505050505050565b6114ad848484610a6b565b6114b984848484611db3565b50505050565b60606114ca826116b2565b5060006114d5611f6a565b905060008151116114f55760405180602001604052806000815250611520565b806114ff84611f81565b604051602001611510929190613594565b6040516020818303038152906040525b915050919050565b60075481565b6000600560008473ffffffffffffffffffffffffffffffffffffffff1673ffffffffffffffffffffffffffffffffffffffff16815260200190815260200160002060008373ffffffffffffffffffffffffffffffffffffffff1673ffffffffffffffffffffffffffffffffffffffff16815260200190815260200160002060009054906101000a900460ff16905092915050565b6115ca6119ec565b600073ffffffffffffffffffffffffffffffffffffffff168173ffffffffffffffffffffffffffffffffffffffff160361163c5760006040517f1e4fbdf700000000000000000000000000000000000000000000000000000000815260040161163391906128a3565b60405180910390fd5b61164581611ad6565b50565b60007f01ffc9a7000000000000000000000000000000000000000000000000000000007bffffffffffffffffffffffffffffffffffffffffffffffffffffffff1916827bffffffffffffffffffffffffffffffffffffffffffffffffffffffff1916149050919050565b6000806116be8361204f565b9050600073ffffffffffffffffffffffffffffffffffffffff168173ffffffffffffffffffffffffffffffffffffffff160361173157826040517f7e2732890000000000000000000000000000000000000000000000000000000081526004016117289190612a96565b60405180910390fd5b80915050919050565b60006004600083815260200190815260200160002060009054906101000a900473ffffffffffffffffffffffffffffffffffffffff169050919050565b600033905090565b61178c838383600161208c565b505050565b611799610c3a565b156117d0576040517fd93c066500000000000000000000000000000000000000000000000000000000815260040160405180910390fd5b565b6000806117de8461204f565b9050600073ffffffffffffffffffffffffffffffffffffffff168373ffffffffffffffffffffffffffffffffffffffff16146118205761181f818486612251565b5b600073ffffffffffffffffffffffffffffffffffffffff168173ffffffffffffffffffffffffffffffffffffffff16146118b15761186260008560008061208c565b6001600360008373ffffffffffffffffffffffffffffffffffffffff1673ffffffffffffffffffffffffffffffffffffffff168152602001908152602001600020600082825403925050819055505b600073ffffffffffffffffffffffffffffffffffffffff168573ffffffffffffffffffffffffffffffffffffffff1614611934576001600360008773ffffffffffffffffffffffffffffffffffffffff1673ffffffffffffffffffffffffffffffffffffffff168152602001908152602001600020600082825401925050819055505b846002600086815260200190815260200160002060006101000a81548173ffffffffffffffffffffffffffffffffffffffff021916908373ffffffffffffffffffffffffffffffffffffffff160217905550838573ffffffffffffffffffffffffffffffffffffffff168273ffffffffffffffffffffffffffffffffffffffff167fddf252ad1be2c89b69c2b068fc378daa952ba7f163c4a11628f55a4df523b3ef60405160405180910390a4809150509392505050565b6119f4611777565b73ffffffffffffffffffffffffffffffffffffffff16611a12610dd9565b73ffffffffffffffffffffffffffffffffffffffff1614611a7157611a35611777565b6040517f118cdaa7000000000000000000000000000000000000000000000000000000008152600401611a6891906128a3565b60405180910390fd5b565b611a7b612315565b6000600660006101000a81548160ff0219169083151502179055507f5db9ee0a495bf2e6ff9c91a7834c1ba4fdd244a5e8aa4e537bd38aeae4b073aa611abf611777565b604051611acc91906128a3565b60405180910390a1565b6000600660019054906101000a900473ffffffffffffffffffffffffffffffffffffffff16905081600660016101000a81548173ffffffffffffffffffffffffffffffffffffffff021916908373ffffffffffffffffffffffffffffffffffffffff1602179055508173ffffffffffffffffffffffffffffffffffffffff168173ffffffffffffffffffffffffffffffffffffffff167f8be0079c531659141344cd1fd0a4f28419497f9722a3daafe3b4186f6b6457e060405160405180910390a35050565b611ba4611791565b6001600660006101000a81548160ff0219169083151502179055507f62e78cea01bee320cd4e420270b5ea74000d11b0c9f74754ebdbfc544b05a258611be8611777565b604051611bf591906128a3565b60405180910390a1565b600073ffffffffffffffffffffffffffffffffffffffff168273ffffffffffffffffffffffffffffffffffffffff1603611c7057816040517f5b08ba18000000000000000000000000000000000000000000000000000000008152600401611c6791906128a3565b60405180910390fd5b80600560008573ffffffffffffffffffffffffffffffffffffffff1673ffffffffffffffffffffffffffffffffffffffff16815260200190815260200160002060008473ffffffffffffffffffffffffffffffffffffffff1673ffffffffffffffffffffffffffffffffffffffff16815260200190815260200160002060006101000a81548160ff0219169083151502179055508173ffffffffffffffffffffffffffffffffffffffff168373ffffffffffffffffffffffffffffffffffffffff167f17307eab39ab6107e8899845ad3d59bd9653f200f220920489ca2b5937696c3183604051611d619190612732565b60405180910390a3505050565b6000808284611d7d91906134d2565b85611d8891906135b8565b9050809150509392505050565b611daf828260405180602001604052806000815250612355565b5050565b60008373ffffffffffffffffffffffffffffffffffffffff163b1115611f64578273ffffffffffffffffffffffffffffffffffffffff1663150b7a02611df7611777565b8685856040518563ffffffff1660e01b8152600401611e19949392919061364f565b6020604051808303816000875af1925050508015611e5557506040513d601f19601f82011682018060405250810190611e5291906136b0565b60015b611ed9573d8060008114611e85576040519150601f19603f3d011682016040523d82523d6000602084013e611e8a565b606091505b506000815103611ed157836040517f64a0ae92000000000000000000000000000000000000000000000000000000008152600401611ec891906128a3565b60405180910390fd5b805181602001fd5b63150b7a0260e01b7bffffffffffffffffffffffffffffffffffffffffffffffffffffffff1916817bffffffffffffffffffffffffffffffffffffffffffffffffffffffff191614611f6257836040517f64a0ae92000000000000000000000000000000000000000000000000000000008152600401611f5991906128a3565b60405180910390fd5b505b50505050565b606060405180602001604052806000815250905090565b606060006001611f9084612371565b01905060008167ffffffffffffffff811115611faf57611fae612be5565b5b6040519080825280601f01601f191660200182016040528015611fe15781602001600182028036833780820191505090505b509050600082602001820190505b600115612044578080600190039150507f3031323334353637383961626364656600000000000000000000000000000000600a86061a8153600a858161203857612037613367565b5b04945060008503611fef575b819350505050919050565b60006002600083815260200190815260200160002060009054906101000a900473ffffffffffffffffffffffffffffffffffffffff169050919050565b80806120c55750600073ffffffffffffffffffffffffffffffffffffffff168273ffffffffffffffffffffffffffffffffffffffff1614155b156121f95760006120d5846116b2565b9050600073ffffffffffffffffffffffffffffffffffffffff168373ffffffffffffffffffffffffffffffffffffffff161415801561214057508273ffffffffffffffffffffffffffffffffffffffff168173ffffffffffffffffffffffffffffffffffffffff1614155b80156121535750612151818461152e565b155b1561219557826040517fa9fbf51f00000000000000000000000000000000000000000000000000000000815260040161218c91906128a3565b60405180910390fd5b81156121f757838573ffffffffffffffffffffffffffffffffffffffff168273ffffffffffffffffffffffffffffffffffffffff167f8c5be1e5ebec7d5bd14f71427d1e84f3dd0314c0f7b2291e5b200ac8c7c3b92560405160405180910390a45b505b836004600085815260200190815260200160002060006101000a81548173ffffffffffffffffffffffffffffffffffffffff021916908373ffffffffffffffffffffffffffffffffffffffff16021790555050505050565b61225c8383836124c4565b61231057600073ffffffffffffffffffffffffffffffffffffffff168373ffffffffffffffffffffffffffffffffffffffff16036122d157806040517f7e2732890000000000000000000000000000000000000000000000000000000081526004016122c89190612a96565b60405180910390fd5b81816040517f177e802f000000000000000000000000000000000000000000000000000000008152600401612307929190613506565b60405180910390fd5b505050565b61231d610c3a565b612353576040517f8dfc202b00000000000000000000000000000000000000000000000000000000815260040160405180910390fd5b565b61235f8383612585565b61236c6000848484611db3565b505050565b600080600090507a184f03e93ff9f4daa797ed6e38ed64bf6a1f01000000000000000083106123cf577a184f03e93ff9f4daa797ed6e38ed64bf6a1f01000000000000000083816123c5576123c4613367565b5b0492506040810190505b6d04ee2d6d415b85acef8100000000831061240c576d04ee2d6d415b85acef8100000000838161240257612401613367565b5b0492506020810190505b662386f26fc10000831061243b57662386f26fc10000838161243157612430613367565b5b0492506010810190505b6305f5e1008310612464576305f5e100838161245a57612459613367565b5b0492506008810190505b612710831061248957612710838161247f5761247e613367565b5b0492506004810190505b606483106124ac57606483816124a2576124a1613367565b5b0492506002810190505b600a83106124bb576001810190505b80915050919050565b60008073ffffffffffffffffffffffffffffffffffffffff168373ffffffffffffffffffffffffffffffffffffffff161415801561257c57508273ffffffffffffffffffffffffffffffffffffffff168473ffffffffffffffffffffffffffffffffffffffff16148061253d575061253c848461152e565b5b8061257b57508273ffffffffffffffffffffffffffffffffffffffff166125638361173a565b73ffffffffffffffffffffffffffffffffffffffff16145b5b90509392505050565b600073ffffffffffffffffffffffffffffffffffffffff168273ffffffffffffffffffffffffffffffffffffffff16036125f75760006040517f64a0ae920000000000000000000000000000000000000000000000000000000081526004016125ee91906128a3565b60405180910390fd5b6000612605838360006117d2565b9050600073ffffffffffffffffffffffffffffffffffffffff168173ffffffffffffffffffffffffffffffffffffffff16146126795760006040517f73c6ac6e00000000000000000000000000000000000000000000000000000000815260040161267091906128a3565b60405180910390fd5b505050565b6000604051905090565b600080fd5b600080fd5b60007fffffffff0000000000000000000000000000000000000000000000000000000082169050919050565b6126c781612692565b81146126d257600080fd5b50565b6000813590506126e4816126be565b92915050565b600060208284031215612700576126ff612688565b5b600061270e848285016126d5565b91505092915050565b60008115159050919050565b61272c81612717565b82525050565b60006020820190506127476000830184612723565b92915050565b600081519050919050565b600082825260208201905092915050565b60005b8381101561278757808201518184015260208101905061276c565b60008484015250505050565b6000601f19601f8301169050919050565b60006127af8261274d565b6127b98185612758565b93506127c9818560208601612769565b6127d281612793565b840191505092915050565b600060208201905081810360008301526127f781846127a4565b905092915050565b6000819050919050565b612812816127ff565b811461281d57600080fd5b50565b60008135905061282f81612809565b92915050565b60006020828403121561284b5761284a612688565b5b600061285984828501612820565b91505092915050565b600073ffffffffffffffffffffffffffffffffffffffff82169050919050565b600061288d82612862565b9050919050565b61289d81612882565b82525050565b60006020820190506128b86000830184612894565b92915050565b6128c781612882565b81146128d257600080fd5b50565b6000813590506128e4816128be565b92915050565b6000806040838503121561290157612900612688565b5b600061290f858286016128d5565b925050602061292085828601612820565b9150509250929050565b6000819050919050565b61293d8161292a565b811461294857600080fd5b50565b60008135905061295a81612934565b92915050565b60006020828403121561297657612975612688565b5b60006129848482850161294b565b91505092915050565b6000806000606084860312156129a6576129a5612688565b5b60006129b4868287016128d5565b93505060206129c5868287016128d5565b92505060406129d686828701612820565b9150509250925092565b6000602082840312156129f6576129f5612688565b5b6000612a04848285016128d5565b91505092915050565b6000819050919050565b6000612a32612a2d612a2884612862565b612a0d565b612862565b9050919050565b6000612a4482612a17565b9050919050565b6000612a5682612a39565b9050919050565b612a6681612a4b565b82525050565b6000602082019050612a816000830184612a5d565b92915050565b612a90816127ff565b82525050565b6000602082019050612aab6000830184612a87565b92915050565b6000612abc82612a39565b9050919050565b612acc81612ab1565b82525050565b6000602082019050612ae76000830184612ac3565b92915050565b612af68161292a565b82525050565b6000606082019050612b116000830186612894565b612b1e6020830185612aed565b612b2b6040830184612a87565b949350505050565b612b3c81612717565b8114612b4757600080fd5b50565b600081359050612b5981612b33565b92915050565b60008060408385031215612b7657612b75612688565b5b6000612b84858286016128d5565b9250506020612b9585828601612b4a565b9150509250929050565b6000612baa82612a39565b9050919050565b612bba81612b9f565b82525050565b6000602082019050612bd56000830184612bb1565b92915050565b600080fd5b600080fd5b7f4e487b7100000000000000000000000000000000000000000000000000000000600052604160045260246000fd5b612c1d82612793565b810181811067ffffffffffffffff82111715612c3c57612c3b612be5565b5b80604052505050565b6000612c4f61267e565b9050612c5b8282612c14565b919050565b600067ffffffffffffffff821115612c7b57612c7a612be5565b5b612c8482612793565b9050602081019050919050565b82818337600083830152505050565b6000612cb3612cae84612c60565b612c45565b905082815260208101848484011115612ccf57612cce612be0565b5b612cda848285612c91565b509392505050565b600082601f830112612cf757612cf6612bdb565b5b8135612d07848260208601612ca0565b91505092915050565b60008060008060808587031215612d2a57612d29612688565b5b6000612d38878288016128d5565b9450506020612d49878288016128d5565b9350506040612d5a87828801612820565b925050606085013567ffffffffffffffff811115612d7b57612d7a61268d565b5b612d8787828801612ce2565b91505092959194509250565b60008060408385031215612daa57612da9612688565b5b6000612db8858286016128d5565b9250506020612dc9858286016128d5565b9150509250929050565b7f4e487b7100000000000000000000000000000000000000000000000000000000600052602260045260246000fd5b60006002820490506001821680612e1a57607f821691505b602082108103612e2d57612e2c612dd3565b5b50919050565b7f446174612068617368206d7573742062652070726f7669646564000000000000600082015250565b6000612e69601a83612758565b9150612e7482612e33565b602082019050919050565b60006020820190508181036000830152612e9881612e5c565b9050919050565b7f50726f6a65637420616c72656164792072656769737465726564000000000000600082015250565b6000612ed5601a83612758565b9150612ee082612e9f565b602082019050919050565b60006020820190508181036000830152612f0481612ec8565b9050919050565b6000604082019050612f206000830185612894565b612f2d6020830184612aed565b9392505050565b600081519050612f4381612b33565b92915050565b600060208284031215612f5f57612f5e612688565b5b6000612f6d84828501612f34565b91505092915050565b7f496e76616c6964206f72207265766f6b65642070726f6a656374206861736800600082015250565b6000612fac601f83612758565b9150612fb782612f76565b602082019050919050565b60006020820190508181036000830152612fdb81612f9f565b9050919050565b6000602082019050612ff76000830184612aed565b92915050565b60006060820190506130126000830186612894565b61301f6020830185612a87565b61302c6040830184612894565b949350505050565b7f4f6e6c79207468652070726f6a656374206f776e65722063616e206d696e742060008201527f4e46547300000000000000000000000000000000000000000000000000000000602082015250565b6000613090602483612758565b915061309b82613034565b604082019050919050565b600060208201905081810360008301526130bf81613083565b9050919050565b7f4e487b7100000000000000000000000000000000000000000000000000000000600052601160045260246000fd5b6000613100826127ff565b915061310b836127ff565b9250828201905080821115613123576131226130c6565b5b92915050565b7f4d696e74696e672064656c6179206e6f74206d65740000000000000000000000600082015250565b600061315f601583612758565b915061316a82613129565b602082019050919050565b6000602082019050818103600083015261318e81613152565b9050919050565b6000815190506131a481612809565b92915050565b6000602082840312156131c0576131bf612688565b5b60006131ce84828501613195565b91505092915050565b7f456e657267792070726f6475636564206d75737420626520677265617465722060008201527f7468616e207a65726f0000000000000000000000000000000000000000000000602082015250565b6000613233602983612758565b915061323e826131d7565b604082019050919050565b6000602082019050818103600083015261326281613226565b9050919050565b7f50726f6a65637420656d697373696f6e7320746f6f2068696768000000000000600082015250565b600061329f601a83612758565b91506132aa82613269565b602082019050919050565b600060208201905081810360008301526132ce81613292565b9050919050565b7f4176657261676520656d697373696f6e7320666163746f72206e6f742075706460008201527f6174656400000000000000000000000000000000000000000000000000000000602082015250565b6000613331602483612758565b915061333c826132d5565b604082019050919050565b6000602082019050818103600083015261336081613324565b9050919050565b7f4e487b7100000000000000000000000000000000000000000000000000000000600052601260045260246000fd5b60006133a1826127ff565b91506133ac836127ff565b9250826133bc576133bb613367565b5b828204905092915050565b7f496e73756666696369656e7420434f3220726564756374696f6e20666f72206d60008201527f696e74696e670000000000000000000000000000000000000000000000000000602082015250565b6000613423602683612758565b915061342e826133c7565b604082019050919050565b6000602082019050818103600083015261345281613416565b9050919050565b6000613464826127ff565b91507fffffffffffffffffffffffffffffffffffffffffffffffffffffffffffffffff8203613496576134956130c6565b5b600182019050919050565b60006134ac826127ff565b91506134b7836127ff565b9250826134c7576134c6613367565b5b828206905092915050565b60006134dd826127ff565b91506134e8836127ff565b9250828203905081811115613500576134ff6130c6565b5b92915050565b600060408201905061351b6000830185612894565b6135286020830184612a87565b9392505050565b60006040820190506135446000830185612a87565b6135516020830184612a87565b9392505050565b600081905092915050565b600061356e8261274d565b6135788185613558565b9350613588818560208601612769565b80840191505092915050565b60006135a08285613563565b91506135ac8284613563565b91508190509392505050565b60006135c3826127ff565b91506135ce836127ff565b92508282026135dc816127ff565b915082820484148315176135f3576135f26130c6565b5b5092915050565b600081519050919050565b600082825260208201905092915050565b6000613621826135fa565b61362b8185613605565b935061363b818560208601612769565b61364481612793565b840191505092915050565b60006080820190506136646000830187612894565b6136716020830186612894565b61367e6040830185612a87565b81810360608301526136908184613616565b905095945050505050565b6000815190506136aa816126be565b92915050565b6000602082840312156136c6576136c5612688565b5b60006136d48482850161369b565b9150509291505056fea2646970667358221220c69d81a687d6945fbfb61abc4e22584ecd9d24b57cf70be475c5e8b8a16de38664736f6c63430008180033",
  "linkReferences": {},
  "deployedLinkReferences": {}
}