{
  "_format": "hh-sol-artifact-1",
  "contractName": "CarbonCreditNFT",
  "sourceName": "contracts/CarbonCreditNFT.sol",
  "abi": [
    {
      "inputs": [
        {
          "internalType": "address",
          "name": "_averageEmissionsOracle",
          "type": "address"
        },
        {
          "internalType": "address",
          "name": "_projectEmissionsOracle",
          "type": "address"
        },
        {
          "internalType": "address",
          "name": "_projectApproval",
          "type": "address"
        }
      ],
      "stateMutability": "nonpayable",
      "type": "constructor"
    },
    {
      "inputs": [
        {
          "internalType": "address",
          "name": "sender",
          "type": "address"
        },
        {
          "internalType": "uint256",
          "name": "tokenId",
          "type": "uint256"
        },
        {
          "internalType": "address",
          "name": "owner",
          "type": "address"
        }
      ],
      "name": "ERC721IncorrectOwner",
      "type": "error"
    },
    {
      "inputs": [
        {
          "internalType": "address",
          "name": "operator",
          "type": "address"
        },
        {
          "internalType": "uint256",
          "name": "tokenId",
          "type": "uint256"
        }
      ],
      "name": "ERC721InsufficientApproval",
      "type": "error"
    },
    {
      "inputs": [
        {
          "internalType": "address",
          "name": "approver",
          "type": "address"
        }
      ],
      "name": "ERC721InvalidApprover",
      "type": "error"
    },
    {
      "inputs": [
        {
          "internalType": "address",
          "name": "operator",
          "type": "address"
        }
      ],
      "name": "ERC721InvalidOperator",
      "type": "error"
    },
    {
      "inputs": [
        {
          "internalType": "address",
          "name": "owner",
          "type": "address"
        }
      ],
      "name": "ERC721InvalidOwner",
      "type": "error"
    },
    {
      "inputs": [
        {
          "internalType": "address",
          "name": "receiver",
          "type": "address"
        }
      ],
      "name": "ERC721InvalidReceiver",
      "type": "error"
    },
    {
      "inputs": [
        {
          "internalType": "address",
          "name": "sender",
          "type": "address"
        }
      ],
      "name": "ERC721InvalidSender",
      "type": "error"
    },
    {
      "inputs": [
        {
          "internalType": "uint256",
          "name": "tokenId",
          "type": "uint256"
        }
      ],
      "name": "ERC721NonexistentToken",
      "type": "error"
    },
    {
      "inputs": [],
      "name": "EnforcedPause",
      "type": "error"
    },
    {
      "inputs": [],
      "name": "ExpectedPause",
      "type": "error"
    },
    {
      "inputs": [
        {
          "internalType": "address",
          "name": "owner",
          "type": "address"
        }
      ],
      "name": "OwnableInvalidOwner",
      "type": "error"
    },
    {
      "inputs": [
        {
          "internalType": "address",
          "name": "account",
          "type": "address"
        }
      ],
      "name": "OwnableUnauthorizedAccount",
      "type": "error"
    },
    {
      "anonymous": false,
      "inputs": [
        {
          "indexed": true,
          "internalType": "address",
          "name": "owner",
          "type": "address"
        },
        {
          "indexed": true,
          "internalType": "address",
          "name": "approved",
          "type": "address"
        },
        {
          "indexed": true,
          "internalType": "uint256",
          "name": "tokenId",
          "type": "uint256"
        }
      ],
      "name": "Approval",
      "type": "event"
    },
    {
      "anonymous": false,
      "inputs": [
        {
          "indexed": true,
          "internalType": "address",
          "name": "owner",
          "type": "address"
        },
        {
          "indexed": true,
          "internalType": "address",
          "name": "operator",
          "type": "address"
        },
        {
          "indexed": false,
          "internalType": "bool",
          "name": "approved",
          "type": "bool"
        }
      ],
      "name": "ApprovalForAll",
      "type": "event"
    },
    {
      "anonymous": false,
      "inputs": [
        {
          "indexed": true,
          "internalType": "address",
          "name": "owner",
          "type": "address"
        },
        {
          "indexed": true,
          "internalType": "address",
          "name": "recipient",
          "type": "address"
        },
        {
          "indexed": false,
          "internalType": "uint256",
          "name": "numberOfTokens",
          "type": "uint256"
        },
        {
          "indexed": false,
          "internalType": "uint256",
          "name": "timestamp",
          "type": "uint256"
        }
      ],
      "name": "CarbonCreditsMinted",
      "type": "event"
    },
    {
      "anonymous": false,
      "inputs": [
        {
          "indexed": true,
          "internalType": "address",
          "name": "previousOwner",
          "type": "address"
        },
        {
          "indexed": true,
          "internalType": "address",
          "name": "newOwner",
          "type": "address"
        }
      ],
      "name": "OwnershipTransferred",
      "type": "event"
    },
    {
      "anonymous": false,
      "inputs": [
        {
          "indexed": false,
          "internalType": "address",
          "name": "account",
          "type": "address"
        }
      ],
      "name": "Paused",
      "type": "event"
    },
    {
      "anonymous": false,
      "inputs": [
        {
          "indexed": true,
          "internalType": "address",
          "name": "owner",
          "type": "address"
        },
        {
          "indexed": false,
          "internalType": "bytes32",
          "name": "dataHash",
          "type": "bytes32"
        }
      ],
      "name": "ProjectRegistered",
      "type": "event"
    },
    {
      "anonymous": false,
      "inputs": [
        {
          "indexed": true,
          "internalType": "address",
          "name": "from",
          "type": "address"
        },
        {
          "indexed": true,
          "internalType": "address",
          "name": "to",
          "type": "address"
        },
        {
          "indexed": true,
          "internalType": "uint256",
          "name": "tokenId",
          "type": "uint256"
        }
      ],
      "name": "Transfer",
      "type": "event"
    },
    {
      "anonymous": false,
      "inputs": [
        {
          "indexed": false,
          "internalType": "address",
          "name": "account",
          "type": "address"
        }
      ],
      "name": "Unpaused",
      "type": "event"
    },
    {
      "inputs": [
        {
          "internalType": "address",
          "name": "to",
          "type": "address"
        },
        {
          "internalType": "uint256",
          "name": "tokenId",
          "type": "uint256"
        }
      ],
      "name": "approve",
      "outputs": [],
      "stateMutability": "nonpayable",
      "type": "function"
    },
    {
      "inputs": [],
      "name": "averageEmissionsOracle",
      "outputs": [
        {
          "internalType": "contract IAverageEmissionsOracle",
          "name": "",
          "type": "address"
        }
      ],
      "stateMutability": "view",
      "type": "function"
    },
    {
      "inputs": [
        {
          "internalType": "address",
          "name": "owner",
          "type": "address"
        }
      ],
      "name": "balanceOf",
      "outputs": [
        {
          "internalType": "uint256",
          "name": "",
          "type": "uint256"
        }
      ],
      "stateMutability": "view",
      "type": "function"
    },
    {
      "inputs": [
        {
          "internalType": "uint256",
          "name": "tokenId",
          "type": "uint256"
        }
      ],
      "name": "getApproved",
      "outputs": [
        {
          "internalType": "address",
          "name": "",
          "type": "address"
        }
      ],
      "stateMutability": "view",
      "type": "function"
    },
    {
      "inputs": [
        {
          "internalType": "address",
          "name": "owner",
          "type": "address"
        },
        {
          "internalType": "address",
          "name": "operator",
          "type": "address"
        }
      ],
      "name": "isApprovedForAll",
      "outputs": [
        {
          "internalType": "bool",
          "name": "",
          "type": "bool"
        }
      ],
      "stateMutability": "view",
      "type": "function"
    },
    {
      "inputs": [
        {
          "internalType": "address",
          "name": "_owner",
          "type": "address"
        }
      ],
      "name": "isProjectRegistered",
      "outputs": [
        {
          "internalType": "bool",
          "name": "",
          "type": "bool"
        }
      ],
      "stateMutability": "view",
      "type": "function"
    },
    {
      "inputs": [
        {
          "internalType": "address",
          "name": "recipient",
          "type": "address"
        }
      ],
      "name": "mintCarbonCredit",
      "outputs": [],
      "stateMutability": "nonpayable",
      "type": "function"
    },
    {
      "inputs": [],
      "name": "name",
      "outputs": [
        {
          "internalType": "string",
          "name": "",
          "type": "string"
        }
      ],
      "stateMutability": "view",
      "type": "function"
    },
    {
      "inputs": [],
      "name": "owner",
      "outputs": [
        {
          "internalType": "address",
          "name": "",
          "type": "address"
        }
      ],
      "stateMutability": "view",
      "type": "function"
    },
    {
      "inputs": [
        {
          "internalType": "uint256",
          "name": "tokenId",
          "type": "uint256"
        }
      ],
      "name": "ownerOf",
      "outputs": [
        {
          "internalType": "address",
          "name": "",
          "type": "address"
        }
      ],
      "stateMutability": "view",
      "type": "function"
    },
    {
      "inputs": [],
      "name": "pause",
      "outputs": [],
      "stateMutability": "nonpayable",
      "type": "function"
    },
    {
      "inputs": [],
      "name": "paused",
      "outputs": [
        {
          "internalType": "bool",
          "name": "",
          "type": "bool"
        }
      ],
      "stateMutability": "view",
      "type": "function"
    },
    {
      "inputs": [],
      "name": "projectApproval",
      "outputs": [
        {
          "internalType": "contract ProjectApproval",
          "name": "",
          "type": "address"
        }
      ],
      "stateMutability": "view",
      "type": "function"
    },
    {
      "inputs": [],
      "name": "projectEmissionsOracle",
      "outputs": [
        {
          "internalType": "contract IProjectEmissionsOracle",
          "name": "",
          "type": "address"
        }
      ],
      "stateMutability": "view",
      "type": "function"
    },
    {
      "inputs": [
        {
          "internalType": "address",
          "name": "",
          "type": "address"
        }
      ],
      "name": "projects",
      "outputs": [
        {
          "internalType": "address",
          "name": "owner",
          "type": "address"
        },
        {
          "internalType": "bytes32",
          "name": "dataHash",
          "type": "bytes32"
        },
        {
          "internalType": "uint256",
          "name": "lastMintedTimestamp",
          "type": "uint256"
        }
      ],
      "stateMutability": "view",
      "type": "function"
    },
    {
      "inputs": [
        {
          "internalType": "bytes32",
          "name": "dataHash",
          "type": "bytes32"
        }
      ],
      "name": "registerProject",
      "outputs": [],
      "stateMutability": "nonpayable",
      "type": "function"
    },
    {
      "inputs": [],
      "name": "renounceOwnership",
      "outputs": [],
      "stateMutability": "nonpayable",
      "type": "function"
    },
    {
      "inputs": [
        {
          "internalType": "address",
          "name": "from",
          "type": "address"
        },
        {
          "internalType": "address",
          "name": "to",
          "type": "address"
        },
        {
          "internalType": "uint256",
          "name": "tokenId",
          "type": "uint256"
        }
      ],
      "name": "safeTransferFrom",
      "outputs": [],
      "stateMutability": "nonpayable",
      "type": "function"
    },
    {
      "inputs": [
        {
          "internalType": "address",
          "name": "from",
          "type": "address"
        },
        {
          "internalType": "address",
          "name": "to",
          "type": "address"
        },
        {
          "internalType": "uint256",
          "name": "tokenId",
          "type": "uint256"
        },
        {
          "internalType": "bytes",
          "name": "data",
          "type": "bytes"
        }
      ],
      "name": "safeTransferFrom",
      "outputs": [],
      "stateMutability": "nonpayable",
      "type": "function"
    },
    {
      "inputs": [
        {
          "internalType": "address",
          "name": "operator",
          "type": "address"
        },
        {
          "internalType": "bool",
          "name": "approved",
          "type": "bool"
        }
      ],
      "name": "setApprovalForAll",
      "outputs": [],
      "stateMutability": "nonpayable",
      "type": "function"
    },
    {
      "inputs": [
        {
          "internalType": "bytes4",
          "name": "interfaceId",
          "type": "bytes4"
        }
      ],
      "name": "supportsInterface",
      "outputs": [
        {
          "internalType": "bool",
          "name": "",
          "type": "bool"
        }
      ],
      "stateMutability": "view",
      "type": "function"
    },
    {
      "inputs": [],
      "name": "symbol",
      "outputs": [
        {
          "internalType": "string",
          "name": "",
          "type": "string"
        }
      ],
      "stateMutability": "view",
      "type": "function"
    },
    {
      "inputs": [],
      "name": "tokenCounter",
      "outputs": [
        {
          "internalType": "uint256",
          "name": "",
          "type": "uint256"
        }
      ],
      "stateMutability": "view",
      "type": "function"
    },
    {
      "inputs": [
        {
          "internalType": "uint256",
          "name": "tokenId",
          "type": "uint256"
        }
      ],
      "name": "tokenURI",
      "outputs": [
        {
          "internalType": "string",
          "name": "",
          "type": "string"
        }
      ],
      "stateMutability": "view",
      "type": "function"
    },
    {
      "inputs": [
        {
          "internalType": "address",
          "name": "from",
          "type": "address"
        },
        {
          "internalType": "address",
          "name": "to",
          "type": "address"
        },
        {
          "internalType": "uint256",
          "name": "tokenId",
          "type": "uint256"
        }
      ],
      "name": "transferFrom",
      "outputs": [],
      "stateMutability": "nonpayable",
      "type": "function"
    },
    {
      "inputs": [
        {
          "internalType": "address",
          "name": "newOwner",
          "type": "address"
        }
      ],
      "name": "transferOwnership",
      "outputs": [],
      "stateMutability": "nonpayable",
      "type": "function"
    },
    {
      "inputs": [],
      "name": "unpause",
      "outputs": [],
      "stateMutability": "nonpayable",
      "type": "function"
    }
  ],
  "bytecode": "0x60806040523480156200001157600080fd5b5060405162003e5a38038062003e5a833981810160405281019062000037919062000370565b336040518060400160405280600f81526020017f436172626f6e4372656469744e465400000000000000000000000000000000008152506040518060400160405280600581526020017f43434e46540000000000000000000000000000000000000000000000000000008152508160009081620000b5919062000646565b508060019081620000c7919062000646565b5050506000600660006101000a81548160ff021916908315150217905550600073ffffffffffffffffffffffffffffffffffffffff168173ffffffffffffffffffffffffffffffffffffffff16036200015a5760006040517f1e4fbdf70000000000000000000000000000000000000000000000000000000081526004016200015191906200073e565b60405180910390fd5b6200016b816200024060201b60201c565b50600060078190555082600860006101000a81548173ffffffffffffffffffffffffffffffffffffffff021916908373ffffffffffffffffffffffffffffffffffffffff16021790555081600960006101000a81548173ffffffffffffffffffffffffffffffffffffffff021916908373ffffffffffffffffffffffffffffffffffffffff16021790555080600a60006101000a81548173ffffffffffffffffffffffffffffffffffffffff021916908373ffffffffffffffffffffffffffffffffffffffff1602179055505050506200075b565b6000600660019054906101000a900473ffffffffffffffffffffffffffffffffffffffff16905081600660016101000a81548173ffffffffffffffffffffffffffffffffffffffff021916908373ffffffffffffffffffffffffffffffffffffffff1602179055508173ffffffffffffffffffffffffffffffffffffffff168173ffffffffffffffffffffffffffffffffffffffff167f8be0079c531659141344cd1fd0a4f28419497f9722a3daafe3b4186f6b6457e060405160405180910390a35050565b600080fd5b600073ffffffffffffffffffffffffffffffffffffffff82169050919050565b600062000338826200030b565b9050919050565b6200034a816200032b565b81146200035657600080fd5b50565b6000815190506200036a816200033f565b92915050565b6000806000606084860312156200038c576200038b62000306565b5b60006200039c8682870162000359565b9350506020620003af8682870162000359565b9250506040620003c28682870162000359565b9150509250925092565b600081519050919050565b7f4e487b7100000000000000000000000000000000000000000000000000000000600052604160045260246000fd5b7f4e487b7100000000000000000000000000000000000000000000000000000000600052602260045260246000fd5b600060028204905060018216806200044e57607f821691505b60208210810362000464576200046362000406565b5b50919050565b60008190508160005260206000209050919050565b60006020601f8301049050919050565b600082821b905092915050565b600060088302620004ce7fffffffffffffffffffffffffffffffffffffffffffffffffffffffffffffffff826200048f565b620004da86836200048f565b95508019841693508086168417925050509392505050565b6000819050919050565b6000819050919050565b600062000527620005216200051b84620004f2565b620004fc565b620004f2565b9050919050565b6000819050919050565b620005438362000506565b6200055b62000552826200052e565b8484546200049c565b825550505050565b600090565b6200057262000563565b6200057f81848462000538565b505050565b5b81811015620005a7576200059b60008262000568565b60018101905062000585565b5050565b601f821115620005f657620005c0816200046a565b620005cb846200047f565b81016020851015620005db578190505b620005f3620005ea856200047f565b83018262000584565b50505b505050565b600082821c905092915050565b60006200061b60001984600802620005fb565b1980831691505092915050565b600062000636838362000608565b9150826002028217905092915050565b6200065182620003cc565b67ffffffffffffffff8111156200066d576200066c620003d7565b5b62000679825462000435565b62000686828285620005ab565b600060209050601f831160018114620006be5760008415620006a9578287015190505b620006b5858262000628565b86555062000725565b601f198416620006ce866200046a565b60005b82811015620006f857848901518255600182019150602085019450602081019050620006d1565b8683101562000718578489015162000714601f89168262000608565b8355505b6001600288020188555050505b505050505050565b62000738816200032b565b82525050565b60006020820190506200075560008301846200072d565b92915050565b6136ef806200076b6000396000f3fe608060405234801561001057600080fd5b50600436106101a95760003560e01c8063715018a6116100f9578063b1767af511610097578063c87b56dd11610071578063c87b56dd14610484578063d082e381146104b4578063e985e9c5146104d2578063f2fde38b14610502576101a9565b8063b1767af51461042e578063b2a0779e1461044c578063b88d4fde14610468576101a9565b80638456cb59116100d35780638456cb59146103cc5780638da5cb5b146103d657806395d89b41146103f4578063a22cb46514610412576101a9565b8063715018a614610372578063722350b41461037c578063840e78fd1461039a576101a9565b80633dd905f1116101665780635c975abb116101405780635c975abb146102d6578063600a389f146102f45780636352211e1461031257806370a0823114610342576101a9565b80633dd905f1146102805780633f4ba83a146102b057806342842e0e146102ba576101a9565b806301ffc9a7146101ae57806306fdde03146101de578063081812fc146101fc578063095ea7b31461022c57806321897cdd1461024857806323b872dd14610264575b600080fd5b6101c860048036038101906101c391906126c6565b61051e565b6040516101d5919061270e565b60405180910390f35b6101e6610600565b6040516101f391906127b9565b60405180910390f35b61021660048036038101906102119190612811565b610692565b604051610223919061287f565b60405180910390f35b610246600480360381019061024191906128c6565b6106ae565b005b610262600480360381019061025d919061293c565b6106c4565b005b61027e60048036038101906102799190612969565b610a6b565b005b61029a600480360381019061029591906129bc565b610b6d565b6040516102a7919061270e565b60405180910390f35b6102b8610c08565b005b6102d460048036038101906102cf9190612969565b610c1a565b005b6102de610c3a565b6040516102eb919061270e565b60405180910390f35b6102fc610c51565b6040516103099190612a48565b60405180910390f35b61032c60048036038101906103279190612811565b610c77565b604051610339919061287f565b60405180910390f35b61035c600480360381019061035791906129bc565b610c89565b6040516103699190612a72565b60405180910390f35b61037a610d43565b005b610384610d57565b6040516103919190612aae565b60405180910390f35b6103b460048036038101906103af91906129bc565b610d7d565b6040516103c393929190612ad8565b60405180910390f35b6103d4610dc7565b005b6103de610dd9565b6040516103eb919061287f565b60405180910390f35b6103fc610e03565b60405161040991906127b9565b60405180910390f35b61042c60048036038101906104279190612b3b565b610e95565b005b610436610eab565b6040516104439190612b9c565b60405180910390f35b610466600480360381019061046191906129bc565b610ed1565b005b610482600480360381019061047d9190612cec565b61147e565b005b61049e60048036038101906104999190612811565b61149b565b6040516104ab91906127b9565b60405180910390f35b6104bc611504565b6040516104c99190612a72565b60405180910390f35b6104ec60048036038101906104e79190612d6f565b61150a565b6040516104f9919061270e565b60405180910390f35b61051c600480360381019061051791906129bc565b61159e565b005b60007f80ac58cd000000000000000000000000000000000000000000000000000000007bffffffffffffffffffffffffffffffffffffffffffffffffffffffff1916827bffffffffffffffffffffffffffffffffffffffffffffffffffffffff191614806105e957507f5b5e139f000000000000000000000000000000000000000000000000000000007bffffffffffffffffffffffffffffffffffffffffffffffffffffffff1916827bffffffffffffffffffffffffffffffffffffffffffffffffffffffff1916145b806105f957506105f882611624565b5b9050919050565b60606000805461060f90612dde565b80601f016020809104026020016040519081016040528092919081815260200182805461063b90612dde565b80156106885780601f1061065d57610100808354040283529160200191610688565b820191906000526020600020905b81548152906001019060200180831161066b57829003601f168201915b5050505050905090565b600061069d8261168e565b506106a782611716565b9050919050565b6106c082826106bb611753565b61175b565b5050565b6106cc61176d565b6000801b8103610711576040517f08c379a000000000000000000000000000000000000000000000000000000000815260040161070890612e5b565b60405180910390fd5b600073ffffffffffffffffffffffffffffffffffffffff16600b60003373ffffffffffffffffffffffffffffffffffffffff1673ffffffffffffffffffffffffffffffffffffffff16815260200190815260200160002060000160009054906101000a900473ffffffffffffffffffffffffffffffffffffffff1673ffffffffffffffffffffffffffffffffffffffff16146107e2576040517f08c379a00000000000000000000000000000000000000000000000000000000081526004016107d990612ec7565b60405180910390fd5b600a60009054906101000a900473ffffffffffffffffffffffffffffffffffffffff1673ffffffffffffffffffffffffffffffffffffffff1663433cab2133836040518363ffffffff1660e01b815260040161083f929190612ee7565b602060405180830381865afa15801561085c573d6000803e3d6000fd5b505050506040513d601f19601f820116820180604052508101906108809190612f25565b6108bf576040517f08c379a00000000000000000000000000000000000000000000000000000000081526004016108b690612f9e565b60405180910390fd5b60405180606001604052803373ffffffffffffffffffffffffffffffffffffffff16815260200182815260200142815250600b60003373ffffffffffffffffffffffffffffffffffffffff1673ffffffffffffffffffffffffffffffffffffffff16815260200190815260200160002060008201518160000160006101000a81548173ffffffffffffffffffffffffffffffffffffffff021916908373ffffffffffffffffffffffffffffffffffffffff16021790555060208201518160010155604082015181600201559050503373ffffffffffffffffffffffffffffffffffffffff167f83de1e71280db675f9563d0566fe85382d2bab1ead7bd1f43ed97dda48a7efdc826040516109d39190612fbe565b60405180910390a2600960009054906101000a900473ffffffffffffffffffffffffffffffffffffffff1673ffffffffffffffffffffffffffffffffffffffff166377a77400336040518263ffffffff1660e01b8152600401610a36919061287f565b600060405180830381600087803b158015610a5057600080fd5b505af1158015610a64573d6000803e3d6000fd5b5050505050565b600073ffffffffffffffffffffffffffffffffffffffff168273ffffffffffffffffffffffffffffffffffffffff1603610add5760006040517f64a0ae92000000000000000000000000000000000000000000000000000000008152600401610ad4919061287f565b60405180910390fd5b6000610af18383610aec611753565b6117ae565b90508373ffffffffffffffffffffffffffffffffffffffff168173ffffffffffffffffffffffffffffffffffffffff1614610b67578382826040517f64283d7b000000000000000000000000000000000000000000000000000000008152600401610b5e93929190612fd9565b60405180910390fd5b50505050565b60008073ffffffffffffffffffffffffffffffffffffffff16600b60008473ffffffffffffffffffffffffffffffffffffffff1673ffffffffffffffffffffffffffffffffffffffff16815260200190815260200160002060000160009054906101000a900473ffffffffffffffffffffffffffffffffffffffff1673ffffffffffffffffffffffffffffffffffffffff1614159050919050565b610c106119c8565b610c18611a4f565b565b610c358383836040518060200160405280600081525061147e565b505050565b6000600660009054906101000a900460ff16905090565b600960009054906101000a900473ffffffffffffffffffffffffffffffffffffffff1681565b6000610c828261168e565b9050919050565b60008073ffffffffffffffffffffffffffffffffffffffff168273ffffffffffffffffffffffffffffffffffffffff1603610cfc5760006040517f89c62b64000000000000000000000000000000000000000000000000000000008152600401610cf3919061287f565b60405180910390fd5b600360008373ffffffffffffffffffffffffffffffffffffffff1673ffffffffffffffffffffffffffffffffffffffff168152602001908152602001600020549050919050565b610d4b6119c8565b610d556000611ab2565b565b600a60009054906101000a900473ffffffffffffffffffffffffffffffffffffffff1681565b600b6020528060005260406000206000915090508060000160009054906101000a900473ffffffffffffffffffffffffffffffffffffffff16908060010154908060020154905083565b610dcf6119c8565b610dd7611b78565b565b6000600660019054906101000a900473ffffffffffffffffffffffffffffffffffffffff16905090565b606060018054610e1290612dde565b80601f0160208091040260200160405190810160405280929190818152602001828054610e3e90612dde565b8015610e8b5780601f10610e6057610100808354040283529160200191610e8b565b820191906000526020600020905b815481529060010190602001808311610e6e57829003601f168201915b5050505050905090565b610ea7610ea0611753565b8383611bdb565b5050565b600860009054906101000a900473ffffffffffffffffffffffffffffffffffffffff1681565b610ed961176d565b6000600b60003373ffffffffffffffffffffffffffffffffffffffff1673ffffffffffffffffffffffffffffffffffffffff16815260200190815260200160002090503373ffffffffffffffffffffffffffffffffffffffff168160000160009054906101000a900473ffffffffffffffffffffffffffffffffffffffff1673ffffffffffffffffffffffffffffffffffffffff1614610fae576040517f08c379a0000000000000000000000000000000000000000000000000000000008152600401610fa590613082565b60405180910390fd5b6000429050601e8260020154610fc491906130d1565b811015611006576040517f08c379a0000000000000000000000000000000000000000000000000000000008152600401610ffd90613151565b60405180910390fd5b6000600960009054906101000a900473ffffffffffffffffffffffffffffffffffffffff1673ffffffffffffffffffffffffffffffffffffffff166344e61f62336040518263ffffffff1660e01b8152600401611063919061287f565b602060405180830381865afa158015611080573d6000803e3d6000fd5b505050506040513d601f19601f820116820180604052508101906110a49190613186565b90506000600960009054906101000a900473ffffffffffffffffffffffffffffffffffffffff1673ffffffffffffffffffffffffffffffffffffffff1663e3d45a68336040518263ffffffff1660e01b8152600401611103919061287f565b602060405180830381865afa158015611120573d6000803e3d6000fd5b505050506040513d601f19601f820116820180604052508101906111449190613186565b90506000600860009054906101000a900473ffffffffffffffffffffffffffffffffffffffff1673ffffffffffffffffffffffffffffffffffffffff16638de4126d6040518163ffffffff1660e01b8152600401602060405180830381865afa1580156111b5573d6000803e3d6000fd5b505050506040513d601f19601f820116820180604052508101906111d99190613186565b90506000831161121e576040517f08c379a000000000000000000000000000000000000000000000000000000000815260040161121590613225565b60405180910390fd5b808210611260576040517f08c379a000000000000000000000000000000000000000000000000000000000815260040161125790613291565b60405180910390fd5b600081116112a3576040517f08c379a000000000000000000000000000000000000000000000000000000000815260040161129a90613323565b60405180910390fd5b60006112b0848385611d4a565b90506000620f4240826112c39190613372565b905060008111611308576040517f08c379a00000000000000000000000000000000000000000000000000000000081526004016112ff90613415565b60405180910390fd5b85876002018190555060005b8181101561134d5761132889600754611d71565b6007600081548092919061133b90613435565b91905055508080600101915050611314565b506000620f42408361135f919061347d565b90506000858561136f91906134ae565b8261137a9190613372565b9050600960009054906101000a900473ffffffffffffffffffffffffffffffffffffffff1673ffffffffffffffffffffffffffffffffffffffff1663779ada8133836040518363ffffffff1660e01b81526004016113d99291906134e2565b600060405180830381600087803b1580156113f357600080fd5b505af1158015611407573d6000803e3d6000fd5b505050508973ffffffffffffffffffffffffffffffffffffffff163373ffffffffffffffffffffffffffffffffffffffff167f284f194befe02e4b285bc2a35d3b04c1c2a1015d820f808f3f1154d4869a5c45858b60405161146a92919061350b565b60405180910390a350505050505050505050565b611489848484610a6b565b61149584848484611d8f565b50505050565b60606114a68261168e565b5060006114b1611f46565b905060008151116114d157604051806020016040528060008152506114fc565b806114db84611f5d565b6040516020016114ec929190613570565b6040516020818303038152906040525b915050919050565b60075481565b6000600560008473ffffffffffffffffffffffffffffffffffffffff1673ffffffffffffffffffffffffffffffffffffffff16815260200190815260200160002060008373ffffffffffffffffffffffffffffffffffffffff1673ffffffffffffffffffffffffffffffffffffffff16815260200190815260200160002060009054906101000a900460ff16905092915050565b6115a66119c8565b600073ffffffffffffffffffffffffffffffffffffffff168173ffffffffffffffffffffffffffffffffffffffff16036116185760006040517f1e4fbdf700000000000000000000000000000000000000000000000000000000815260040161160f919061287f565b60405180910390fd5b61162181611ab2565b50565b60007f01ffc9a7000000000000000000000000000000000000000000000000000000007bffffffffffffffffffffffffffffffffffffffffffffffffffffffff1916827bffffffffffffffffffffffffffffffffffffffffffffffffffffffff1916149050919050565b60008061169a8361202b565b9050600073ffffffffffffffffffffffffffffffffffffffff168173ffffffffffffffffffffffffffffffffffffffff160361170d57826040517f7e2732890000000000000000000000000000000000000000000000000000000081526004016117049190612a72565b60405180910390fd5b80915050919050565b60006004600083815260200190815260200160002060009054906101000a900473ffffffffffffffffffffffffffffffffffffffff169050919050565b600033905090565b6117688383836001612068565b505050565b611775610c3a565b156117ac576040517fd93c066500000000000000000000000000000000000000000000000000000000815260040160405180910390fd5b565b6000806117ba8461202b565b9050600073ffffffffffffffffffffffffffffffffffffffff168373ffffffffffffffffffffffffffffffffffffffff16146117fc576117fb81848661222d565b5b600073ffffffffffffffffffffffffffffffffffffffff168173ffffffffffffffffffffffffffffffffffffffff161461188d5761183e600085600080612068565b6001600360008373ffffffffffffffffffffffffffffffffffffffff1673ffffffffffffffffffffffffffffffffffffffff168152602001908152602001600020600082825403925050819055505b600073ffffffffffffffffffffffffffffffffffffffff168573ffffffffffffffffffffffffffffffffffffffff1614611910576001600360008773ffffffffffffffffffffffffffffffffffffffff1673ffffffffffffffffffffffffffffffffffffffff168152602001908152602001600020600082825401925050819055505b846002600086815260200190815260200160002060006101000a81548173ffffffffffffffffffffffffffffffffffffffff021916908373ffffffffffffffffffffffffffffffffffffffff160217905550838573ffffffffffffffffffffffffffffffffffffffff168273ffffffffffffffffffffffffffffffffffffffff167fddf252ad1be2c89b69c2b068fc378daa952ba7f163c4a11628f55a4df523b3ef60405160405180910390a4809150509392505050565b6119d0611753565b73ffffffffffffffffffffffffffffffffffffffff166119ee610dd9565b73ffffffffffffffffffffffffffffffffffffffff1614611a4d57611a11611753565b6040517f118cdaa7000000000000000000000000000000000000000000000000000000008152600401611a44919061287f565b60405180910390fd5b565b611a576122f1565b6000600660006101000a81548160ff0219169083151502179055507f5db9ee0a495bf2e6ff9c91a7834c1ba4fdd244a5e8aa4e537bd38aeae4b073aa611a9b611753565b604051611aa8919061287f565b60405180910390a1565b6000600660019054906101000a900473ffffffffffffffffffffffffffffffffffffffff16905081600660016101000a81548173ffffffffffffffffffffffffffffffffffffffff021916908373ffffffffffffffffffffffffffffffffffffffff1602179055508173ffffffffffffffffffffffffffffffffffffffff168173ffffffffffffffffffffffffffffffffffffffff167f8be0079c531659141344cd1fd0a4f28419497f9722a3daafe3b4186f6b6457e060405160405180910390a35050565b611b8061176d565b6001600660006101000a81548160ff0219169083151502179055507f62e78cea01bee320cd4e420270b5ea74000d11b0c9f74754ebdbfc544b05a258611bc4611753565b604051611bd1919061287f565b60405180910390a1565b600073ffffffffffffffffffffffffffffffffffffffff168273ffffffffffffffffffffffffffffffffffffffff1603611c4c57816040517f5b08ba18000000000000000000000000000000000000000000000000000000008152600401611c43919061287f565b60405180910390fd5b80600560008573ffffffffffffffffffffffffffffffffffffffff1673ffffffffffffffffffffffffffffffffffffffff16815260200190815260200160002060008473ffffffffffffffffffffffffffffffffffffffff1673ffffffffffffffffffffffffffffffffffffffff16815260200190815260200160002060006101000a81548160ff0219169083151502179055508173ffffffffffffffffffffffffffffffffffffffff168373ffffffffffffffffffffffffffffffffffffffff167f17307eab39ab6107e8899845ad3d59bd9653f200f220920489ca2b5937696c3183604051611d3d919061270e565b60405180910390a3505050565b6000808284611d5991906134ae565b85611d649190613594565b9050809150509392505050565b611d8b828260405180602001604052806000815250612331565b5050565b60008373ffffffffffffffffffffffffffffffffffffffff163b1115611f40578273ffffffffffffffffffffffffffffffffffffffff1663150b7a02611dd3611753565b8685856040518563ffffffff1660e01b8152600401611df5949392919061362b565b6020604051808303816000875af1925050508015611e3157506040513d601f19601f82011682018060405250810190611e2e919061368c565b60015b611eb5573d8060008114611e61576040519150601f19603f3d011682016040523d82523d6000602084013e611e66565b606091505b506000815103611ead57836040517f64a0ae92000000000000000000000000000000000000000000000000000000008152600401611ea4919061287f565b60405180910390fd5b805181602001fd5b63150b7a0260e01b7bffffffffffffffffffffffffffffffffffffffffffffffffffffffff1916817bffffffffffffffffffffffffffffffffffffffffffffffffffffffff191614611f3e57836040517f64a0ae92000000000000000000000000000000000000000000000000000000008152600401611f35919061287f565b60405180910390fd5b505b50505050565b606060405180602001604052806000815250905090565b606060006001611f6c8461234d565b01905060008167ffffffffffffffff811115611f8b57611f8a612bc1565b5b6040519080825280601f01601f191660200182016040528015611fbd5781602001600182028036833780820191505090505b509050600082602001820190505b600115612020578080600190039150507f3031323334353637383961626364656600000000000000000000000000000000600a86061a8153600a858161201457612013613343565b5b04945060008503611fcb575b819350505050919050565b60006002600083815260200190815260200160002060009054906101000a900473ffffffffffffffffffffffffffffffffffffffff169050919050565b80806120a15750600073ffffffffffffffffffffffffffffffffffffffff168273ffffffffffffffffffffffffffffffffffffffff1614155b156121d55760006120b18461168e565b9050600073ffffffffffffffffffffffffffffffffffffffff168373ffffffffffffffffffffffffffffffffffffffff161415801561211c57508273ffffffffffffffffffffffffffffffffffffffff168173ffffffffffffffffffffffffffffffffffffffff1614155b801561212f575061212d818461150a565b155b1561217157826040517fa9fbf51f000000000000000000000000000000000000000000000000000000008152600401612168919061287f565b60405180910390fd5b81156121d357838573ffffffffffffffffffffffffffffffffffffffff168273ffffffffffffffffffffffffffffffffffffffff167f8c5be1e5ebec7d5bd14f71427d1e84f3dd0314c0f7b2291e5b200ac8c7c3b92560405160405180910390a45b505b836004600085815260200190815260200160002060006101000a81548173ffffffffffffffffffffffffffffffffffffffff021916908373ffffffffffffffffffffffffffffffffffffffff16021790555050505050565b6122388383836124a0565b6122ec57600073ffffffffffffffffffffffffffffffffffffffff168373ffffffffffffffffffffffffffffffffffffffff16036122ad57806040517f7e2732890000000000000000000000000000000000000000000000000000000081526004016122a49190612a72565b60405180910390fd5b81816040517f177e802f0000000000000000000000000000000000000000000000000000000081526004016122e39291906134e2565b60405180910390fd5b505050565b6122f9610c3a565b61232f576040517f8dfc202b00000000000000000000000000000000000000000000000000000000815260040160405180910390fd5b565b61233b8383612561565b6123486000848484611d8f565b505050565b600080600090507a184f03e93ff9f4daa797ed6e38ed64bf6a1f01000000000000000083106123ab577a184f03e93ff9f4daa797ed6e38ed64bf6a1f01000000000000000083816123a1576123a0613343565b5b0492506040810190505b6d04ee2d6d415b85acef810000000083106123e8576d04ee2d6d415b85acef810000000083816123de576123dd613343565b5b0492506020810190505b662386f26fc10000831061241757662386f26fc10000838161240d5761240c613343565b5b0492506010810190505b6305f5e1008310612440576305f5e100838161243657612435613343565b5b0492506008810190505b612710831061246557612710838161245b5761245a613343565b5b0492506004810190505b60648310612488576064838161247e5761247d613343565b5b0492506002810190505b600a8310612497576001810190505b80915050919050565b60008073ffffffffffffffffffffffffffffffffffffffff168373ffffffffffffffffffffffffffffffffffffffff161415801561255857508273ffffffffffffffffffffffffffffffffffffffff168473ffffffffffffffffffffffffffffffffffffffff1614806125195750612518848461150a565b5b8061255757508273ffffffffffffffffffffffffffffffffffffffff1661253f83611716565b73ffffffffffffffffffffffffffffffffffffffff16145b5b90509392505050565b600073ffffffffffffffffffffffffffffffffffffffff168273ffffffffffffffffffffffffffffffffffffffff16036125d35760006040517f64a0ae920000000000000000000000000000000000000000000000000000000081526004016125ca919061287f565b60405180910390fd5b60006125e1838360006117ae565b9050600073ffffffffffffffffffffffffffffffffffffffff168173ffffffffffffffffffffffffffffffffffffffff16146126555760006040517f73c6ac6e00000000000000000000000000000000000000000000000000000000815260040161264c919061287f565b60405180910390fd5b505050565b6000604051905090565b600080fd5b600080fd5b60007fffffffff0000000000000000000000000000000000000000000000000000000082169050919050565b6126a38161266e565b81146126ae57600080fd5b50565b6000813590506126c08161269a565b92915050565b6000602082840312156126dc576126db612664565b5b60006126ea848285016126b1565b91505092915050565b60008115159050919050565b612708816126f3565b82525050565b600060208201905061272360008301846126ff565b92915050565b600081519050919050565b600082825260208201905092915050565b60005b83811015612763578082015181840152602081019050612748565b60008484015250505050565b6000601f19601f8301169050919050565b600061278b82612729565b6127958185612734565b93506127a5818560208601612745565b6127ae8161276f565b840191505092915050565b600060208201905081810360008301526127d38184612780565b905092915050565b6000819050919050565b6127ee816127db565b81146127f957600080fd5b50565b60008135905061280b816127e5565b92915050565b60006020828403121561282757612826612664565b5b6000612835848285016127fc565b91505092915050565b600073ffffffffffffffffffffffffffffffffffffffff82169050919050565b60006128698261283e565b9050919050565b6128798161285e565b82525050565b60006020820190506128946000830184612870565b92915050565b6128a38161285e565b81146128ae57600080fd5b50565b6000813590506128c08161289a565b92915050565b600080604083850312156128dd576128dc612664565b5b60006128eb858286016128b1565b92505060206128fc858286016127fc565b9150509250929050565b6000819050919050565b61291981612906565b811461292457600080fd5b50565b60008135905061293681612910565b92915050565b60006020828403121561295257612951612664565b5b600061296084828501612927565b91505092915050565b60008060006060848603121561298257612981612664565b5b6000612990868287016128b1565b93505060206129a1868287016128b1565b92505060406129b2868287016127fc565b9150509250925092565b6000602082840312156129d2576129d1612664565b5b60006129e0848285016128b1565b91505092915050565b6000819050919050565b6000612a0e612a09612a048461283e565b6129e9565b61283e565b9050919050565b6000612a20826129f3565b9050919050565b6000612a3282612a15565b9050919050565b612a4281612a27565b82525050565b6000602082019050612a5d6000830184612a39565b92915050565b612a6c816127db565b82525050565b6000602082019050612a876000830184612a63565b92915050565b6000612a9882612a15565b9050919050565b612aa881612a8d565b82525050565b6000602082019050612ac36000830184612a9f565b92915050565b612ad281612906565b82525050565b6000606082019050612aed6000830186612870565b612afa6020830185612ac9565b612b076040830184612a63565b949350505050565b612b18816126f3565b8114612b2357600080fd5b50565b600081359050612b3581612b0f565b92915050565b60008060408385031215612b5257612b51612664565b5b6000612b60858286016128b1565b9250506020612b7185828601612b26565b9150509250929050565b6000612b8682612a15565b9050919050565b612b9681612b7b565b82525050565b6000602082019050612bb16000830184612b8d565b92915050565b600080fd5b600080fd5b7f4e487b7100000000000000000000000000000000000000000000000000000000600052604160045260246000fd5b612bf98261276f565b810181811067ffffffffffffffff82111715612c1857612c17612bc1565b5b80604052505050565b6000612c2b61265a565b9050612c378282612bf0565b919050565b600067ffffffffffffffff821115612c5757612c56612bc1565b5b612c608261276f565b9050602081019050919050565b82818337600083830152505050565b6000612c8f612c8a84612c3c565b612c21565b905082815260208101848484011115612cab57612caa612bbc565b5b612cb6848285612c6d565b509392505050565b600082601f830112612cd357612cd2612bb7565b5b8135612ce3848260208601612c7c565b91505092915050565b60008060008060808587031215612d0657612d05612664565b5b6000612d14878288016128b1565b9450506020612d25878288016128b1565b9350506040612d36878288016127fc565b925050606085013567ffffffffffffffff811115612d5757612d56612669565b5b612d6387828801612cbe565b91505092959194509250565b60008060408385031215612d8657612d85612664565b5b6000612d94858286016128b1565b9250506020612da5858286016128b1565b9150509250929050565b7f4e487b7100000000000000000000000000000000000000000000000000000000600052602260045260246000fd5b60006002820490506001821680612df657607f821691505b602082108103612e0957612e08612daf565b5b50919050565b7f446174612068617368206d7573742062652070726f7669646564000000000000600082015250565b6000612e45601a83612734565b9150612e5082612e0f565b602082019050919050565b60006020820190508181036000830152612e7481612e38565b9050919050565b7f50726f6a65637420616c72656164792072656769737465726564000000000000600082015250565b6000612eb1601a83612734565b9150612ebc82612e7b565b602082019050919050565b60006020820190508181036000830152612ee081612ea4565b9050919050565b6000604082019050612efc6000830185612870565b612f096020830184612ac9565b9392505050565b600081519050612f1f81612b0f565b92915050565b600060208284031215612f3b57612f3a612664565b5b6000612f4984828501612f10565b91505092915050565b7f496e76616c6964206f72207265766f6b65642070726f6a656374206861736800600082015250565b6000612f88601f83612734565b9150612f9382612f52565b602082019050919050565b60006020820190508181036000830152612fb781612f7b565b9050919050565b6000602082019050612fd36000830184612ac9565b92915050565b6000606082019050612fee6000830186612870565b612ffb6020830185612a63565b6130086040830184612870565b949350505050565b7f4f6e6c79207468652070726f6a656374206f776e65722063616e206d696e742060008201527f4e46547300000000000000000000000000000000000000000000000000000000602082015250565b600061306c602483612734565b915061307782613010565b604082019050919050565b6000602082019050818103600083015261309b8161305f565b9050919050565b7f4e487b7100000000000000000000000000000000000000000000000000000000600052601160045260246000fd5b60006130dc826127db565b91506130e7836127db565b92508282019050808211156130ff576130fe6130a2565b5b92915050565b7f4d696e74696e672064656c6179206e6f74206d65740000000000000000000000600082015250565b600061313b601583612734565b915061314682613105565b602082019050919050565b6000602082019050818103600083015261316a8161312e565b9050919050565b600081519050613180816127e5565b92915050565b60006020828403121561319c5761319b612664565b5b60006131aa84828501613171565b91505092915050565b7f456e657267792070726f6475636564206d75737420626520677265617465722060008201527f7468616e207a65726f0000000000000000000000000000000000000000000000602082015250565b600061320f602983612734565b915061321a826131b3565b604082019050919050565b6000602082019050818103600083015261323e81613202565b9050919050565b7f50726f6a65637420656d697373696f6e7320746f6f2068696768000000000000600082015250565b600061327b601a83612734565b915061328682613245565b602082019050919050565b600060208201905081810360008301526132aa8161326e565b9050919050565b7f4176657261676520656d697373696f6e7320666163746f72206e6f742075706460008201527f6174656400000000000000000000000000000000000000000000000000000000602082015250565b600061330d602483612734565b9150613318826132b1565b604082019050919050565b6000602082019050818103600083015261333c81613300565b9050919050565b7f4e487b7100000000000000000000000000000000000000000000000000000000600052601260045260246000fd5b600061337d826127db565b9150613388836127db565b92508261339857613397613343565b5b828204905092915050565b7f496e73756666696369656e7420434f3220726564756374696f6e20666f72206d60008201527f696e74696e670000000000000000000000000000000000000000000000000000602082015250565b60006133ff602683612734565b915061340a826133a3565b604082019050919050565b6000602082019050818103600083015261342e816133f2565b9050919050565b6000613440826127db565b91507fffffffffffffffffffffffffffffffffffffffffffffffffffffffffffffffff8203613472576134716130a2565b5b600182019050919050565b6000613488826127db565b9150613493836127db565b9250826134a3576134a2613343565b5b828206905092915050565b60006134b9826127db565b91506134c4836127db565b92508282039050818111156134dc576134db6130a2565b5b92915050565b60006040820190506134f76000830185612870565b6135046020830184612a63565b9392505050565b60006040820190506135206000830185612a63565b61352d6020830184612a63565b9392505050565b600081905092915050565b600061354a82612729565b6135548185613534565b9350613564818560208601612745565b80840191505092915050565b600061357c828561353f565b9150613588828461353f565b91508190509392505050565b600061359f826127db565b91506135aa836127db565b92508282026135b8816127db565b915082820484148315176135cf576135ce6130a2565b5b5092915050565b600081519050919050565b600082825260208201905092915050565b60006135fd826135d6565b61360781856135e1565b9350613617818560208601612745565b6136208161276f565b840191505092915050565b60006080820190506136406000830187612870565b61364d6020830186612870565b61365a6040830185612a63565b818103606083015261366c81846135f2565b905095945050505050565b6000815190506136868161269a565b92915050565b6000602082840312156136a2576136a1612664565b5b60006136b084828501613677565b9150509291505056fea2646970667358221220785888b22029429f7ee8a7af518f1a65c6cb0d348941a72464495bdf63125d7a64736f6c63430008180033",
  "linkReferences": {},
  "deployedLinkReferences": {}
}