{
  "_format": "hh-sol-artifact-1",
  "contractName": "ProjectApproval",
  "sourceName": "contracts/ProjectApproval.sol",
  "abi": [
    {
      "inputs": [],
      "stateMutability": "nonpayable",
      "type": "constructor"
    },
    {
      "anonymous": false,
      "inputs": [
        {
          "indexed": true,
          "internalType": "address",
          "name": "owner",
          "type": "address"
        },
        {
          "indexed": false,
          "internalType": "bytes32",
          "name": "approvalHash",
          "type": "bytes32"
        }
      ],
      "name": "ProjectApproved",
      "type": "event"
    },
    {
      "anonymous": false,
      "inputs": [
        {
          "indexed": true,
          "internalType": "address",
          "name": "owner",
          "type": "address"
        },
        {
          "indexed": false,
          "internalType": "bytes32",
          "name": "projectDetailsHash",
          "type": "bytes32"
        },
        {
          "indexed": false,
          "internalType": "bytes32",
          "name": "certificateHash",
          "type": "bytes32"
        }
      ],
      "name": "ProjectSubmitted",
      "type": "event"
    },
    {
      "inputs": [
        {
          "internalType": "address",
          "name": "owner",
          "type": "address"
        }
      ],
      "name": "approveProject",
      "outputs": [],
      "stateMutability": "nonpayable",
      "type": "function"
    },
    {
      "inputs": [
        {
          "internalType": "address",
          "name": "",
          "type": "address"
        }
      ],
      "name": "approvedProjects",
      "outputs": [
        {
          "internalType": "bytes32",
          "name": "",
          "type": "bytes32"
        }
      ],
      "stateMutability": "view",
      "type": "function"
    },
    {
      "inputs": [],
      "name": "approver",
      "outputs": [
        {
          "internalType": "address",
          "name": "",
          "type": "address"
        }
      ],
      "stateMutability": "view",
      "type": "function"
    },
    {
      "inputs": [
        {
          "internalType": "address",
          "name": "owner",
          "type": "address"
        }
      ],
      "name": "getProject",
      "outputs": [
        {
          "internalType": "bytes32",
          "name": "",
          "type": "bytes32"
        },
        {
          "internalType": "bytes32",
          "name": "",
          "type": "bytes32"
        },
        {
          "internalType": "bool",
          "name": "",
          "type": "bool"
        }
      ],
      "stateMutability": "view",
      "type": "function"
    },
    {
      "inputs": [
        {
          "internalType": "address",
          "name": "",
          "type": "address"
        }
      ],
      "name": "hasSubmitted",
      "outputs": [
        {
          "internalType": "bool",
          "name": "",
          "type": "bool"
        }
      ],
      "stateMutability": "view",
      "type": "function"
    },
    {
      "inputs": [
        {
          "internalType": "address",
          "name": "owner",
          "type": "address"
        },
        {
          "internalType": "bytes32",
          "name": "approvalHash",
          "type": "bytes32"
        }
      ],
      "name": "isValidProjectHash",
      "outputs": [
        {
          "internalType": "bool",
          "name": "",
          "type": "bool"
        }
      ],
      "stateMutability": "view",
      "type": "function"
    },
    {
      "inputs": [
        {
          "internalType": "bytes32",
          "name": "projectDetailsHash",
          "type": "bytes32"
        },
        {
          "internalType": "bytes32",
          "name": "certificateHash",
          "type": "bytes32"
        }
      ],
      "name": "submitProject",
      "outputs": [],
      "stateMutability": "nonpayable",
      "type": "function"
    },
    {
      "inputs": [
        {
          "internalType": "address",
          "name": "",
          "type": "address"
        }
      ],
      "name": "submittedProjects",
      "outputs": [
        {
          "internalType": "bytes32",
          "name": "projectDetailsHash",
          "type": "bytes32"
        },
        {
          "internalType": "bytes32",
          "name": "certificateHash",
          "type": "bytes32"
        },
        {
          "internalType": "bool",
          "name": "isApproved",
          "type": "bool"
        }
      ],
      "stateMutability": "view",
      "type": "function"
    }
  ],
  "bytecode": "0x608060405234801561001057600080fd5b50336000806101000a81548173ffffffffffffffffffffffffffffffffffffffff021916908373ffffffffffffffffffffffffffffffffffffffff160217905550610eb0806100606000396000f3fe608060405234801561001057600080fd5b50600436106100885760003560e01c806371f4e9081161005b57806371f4e908146101275780639313899314610159578063be26175214610189578063f9870705146101a557610088565b8063141a8dd81461008d578063388044b3146100ab578063433cab21146100db5780636620a4801461010b575b600080fd5b6100956101d7565b6040516100a29190610933565b60405180910390f35b6100c560048036038101906100c0919061097f565b6101fb565b6040516100d291906109c7565b60405180910390f35b6100f560048036038101906100f09190610a18565b61021b565b60405161010291906109c7565b60405180910390f35b61012560048036038101906101209190610a58565b610267565b005b610141600480360381019061013c919061097f565b6104be565b60405161015093929190610aa7565b60405180910390f35b610173600480360381019061016e919061097f565b6104f5565b6040516101809190610ade565b60405180910390f35b6101a3600480360381019061019e919061097f565b61050d565b005b6101bf60048036038101906101ba919061097f565b610854565b6040516101ce93929190610aa7565b60405180910390f35b60008054906101000a900473ffffffffffffffffffffffffffffffffffffffff1681565b60026020528060005260406000206000915054906101000a900460ff1681565b600081600160008573ffffffffffffffffffffffffffffffffffffffff1673ffffffffffffffffffffffffffffffffffffffff1681526020019081526020016000205414905092915050565b6000801b82036102ac576040517f08c379a00000000000000000000000000000000000000000000000000000000081526004016102a390610b7c565b60405180910390fd5b6000801b81036102f1576040517f08c379a00000000000000000000000000000000000000000000000000000000081526004016102e890610be8565b60405180910390fd5b600260003373ffffffffffffffffffffffffffffffffffffffff1673ffffffffffffffffffffffffffffffffffffffff16815260200190815260200160002060009054906101000a900460ff161561037e576040517f08c379a000000000000000000000000000000000000000000000000000000000815260040161037590610c7a565b60405180910390fd5b604051806060016040528083815260200182815260200160001515815250600360003373ffffffffffffffffffffffffffffffffffffffff1673ffffffffffffffffffffffffffffffffffffffff168152602001908152602001600020600082015181600001556020820151816001015560408201518160020160006101000a81548160ff0219169083151502179055509050506001600260003373ffffffffffffffffffffffffffffffffffffffff1673ffffffffffffffffffffffffffffffffffffffff16815260200190815260200160002060006101000a81548160ff0219169083151502179055503373ffffffffffffffffffffffffffffffffffffffff167f9d2186044eec4ad967ceb58c90a9ada892d0980df00953e218ba36ca3322b44783836040516104b2929190610c9a565b60405180910390a25050565b60036020528060005260406000206000915090508060000154908060010154908060020160009054906101000a900460ff16905083565b60016020528060005260406000206000915090505481565b60008054906101000a900473ffffffffffffffffffffffffffffffffffffffff1673ffffffffffffffffffffffffffffffffffffffff163373ffffffffffffffffffffffffffffffffffffffff161461059b576040517f08c379a000000000000000000000000000000000000000000000000000000000815260040161059290610d35565b60405180910390fd5b6000801b600360008373ffffffffffffffffffffffffffffffffffffffff1673ffffffffffffffffffffffffffffffffffffffff1681526020019081526020016000206000015403610622576040517f08c379a000000000000000000000000000000000000000000000000000000000815260040161061990610da1565b60405180910390fd5b600360008273ffffffffffffffffffffffffffffffffffffffff1673ffffffffffffffffffffffffffffffffffffffff16815260200190815260200160002060020160009054906101000a900460ff16156106b2576040517f08c379a00000000000000000000000000000000000000000000000000000000081526004016106a990610e0d565b60405180910390fd5b6000600360008373ffffffffffffffffffffffffffffffffffffffff1673ffffffffffffffffffffffffffffffffffffffff16815260200190815260200160002060000154600360008473ffffffffffffffffffffffffffffffffffffffff1673ffffffffffffffffffffffffffffffffffffffff1681526020019081526020016000206001015460405160200161074b929190610e4e565b6040516020818303038152906040528051906020012090506001600360008473ffffffffffffffffffffffffffffffffffffffff1673ffffffffffffffffffffffffffffffffffffffff16815260200190815260200160002060020160006101000a81548160ff02191690831515021790555080600160008473ffffffffffffffffffffffffffffffffffffffff1673ffffffffffffffffffffffffffffffffffffffff168152602001908152602001600020819055508173ffffffffffffffffffffffffffffffffffffffff167fa28e1567cb4f3c5639a3783ee93838daf1ad53f84ada9ef422b177a80f20a32a826040516108489190610ade565b60405180910390a25050565b600080600080600360008673ffffffffffffffffffffffffffffffffffffffff1673ffffffffffffffffffffffffffffffffffffffff16815260200190815260200160002060405180606001604052908160008201548152602001600182015481526020016002820160009054906101000a900460ff1615151515815250509050806000015181602001518260400151935093509350509193909250565b600073ffffffffffffffffffffffffffffffffffffffff82169050919050565b600061091d826108f2565b9050919050565b61092d81610912565b82525050565b60006020820190506109486000830184610924565b92915050565b600080fd5b61095c81610912565b811461096757600080fd5b50565b60008135905061097981610953565b92915050565b6000602082840312156109955761099461094e565b5b60006109a38482850161096a565b91505092915050565b60008115159050919050565b6109c1816109ac565b82525050565b60006020820190506109dc60008301846109b8565b92915050565b6000819050919050565b6109f5816109e2565b8114610a0057600080fd5b50565b600081359050610a12816109ec565b92915050565b60008060408385031215610a2f57610a2e61094e565b5b6000610a3d8582860161096a565b9250506020610a4e85828601610a03565b9150509250929050565b60008060408385031215610a6f57610a6e61094e565b5b6000610a7d85828601610a03565b9250506020610a8e85828601610a03565b9150509250929050565b610aa1816109e2565b82525050565b6000606082019050610abc6000830186610a98565b610ac96020830185610a98565b610ad660408301846109b8565b949350505050565b6000602082019050610af36000830184610a98565b92915050565b600082825260208201905092915050565b7f50726f6a6563742064657461696c7320686173682063616e6e6f74206265206560008201527f6d70747900000000000000000000000000000000000000000000000000000000602082015250565b6000610b66602483610af9565b9150610b7182610b0a565b604082019050919050565b60006020820190508181036000830152610b9581610b59565b9050919050565b7f436572746966696361746520686173682063616e6e6f7420626520656d707479600082015250565b6000610bd2602083610af9565b9150610bdd82610b9c565b602082019050919050565b60006020820190508181036000830152610c0181610bc5565b9050919050565b7f50726f6a65637420616c7265616479207375626d69747465642062792074686960008201527f73206f776e657200000000000000000000000000000000000000000000000000602082015250565b6000610c64602783610af9565b9150610c6f82610c08565b604082019050919050565b60006020820190508181036000830152610c9381610c57565b9050919050565b6000604082019050610caf6000830185610a98565b610cbc6020830184610a98565b9392505050565b7f4f6e6c792074686520617070726f7665722063616e20617070726f766520707260008201527f6f6a656374730000000000000000000000000000000000000000000000000000602082015250565b6000610d1f602683610af9565b9150610d2a82610cc3565b604082019050919050565b60006020820190508181036000830152610d4e81610d12565b9050919050565b7f50726f6a656374206e6f7420666f756e6420666f722074686973206f776e6572600082015250565b6000610d8b602083610af9565b9150610d9682610d55565b602082019050919050565b60006020820190508181036000830152610dba81610d7e565b9050919050565b7f50726f6a65637420697320616c726561647920617070726f7665640000000000600082015250565b6000610df7601b83610af9565b9150610e0282610dc1565b602082019050919050565b60006020820190508181036000830152610e2681610dea565b9050919050565b6000819050919050565b610e48610e43826109e2565b610e2d565b82525050565b6000610e5a8285610e37565b602082019150610e6a8284610e37565b602082019150819050939250505056fea2646970667358221220d6d685383ea9279663fea0192f65128e2c3fbf811e4ac74f28e209ebdab229ba64736f6c63430008140033",
  "linkReferences": {},
  "deployedLinkReferences": {}
}